{
  "_format": "hh-sol-artifact-1",
  "contractName": "Record",
  "sourceName": "contracts/Record.sol",
  "abi": [
    {
      "inputs": [],
      "stateMutability": "nonpayable",
      "type": "constructor"
    },
    {
      "anonymous": false,
      "inputs": [
        {
          "indexed": true,
          "internalType": "address",
          "name": "patient",
          "type": "address"
        },
        {
          "indexed": true,
          "internalType": "address",
          "name": "doctor",
          "type": "address"
        }
      ],
      "name": "AppointmentCreated",
      "type": "event"
    },
    {
      "anonymous": false,
      "inputs": [
        {
          "indexed": true,
          "internalType": "address",
          "name": "doctor",
          "type": "address"
        }
      ],
      "name": "DoctorRegistered",
      "type": "event"
    },
    {
      "anonymous": false,
      "inputs": [
        {
          "indexed": true,
          "internalType": "address",
          "name": "patient",
          "type": "address"
        }
      ],
      "name": "PatientRegistered",
      "type": "event"
    },
    {
      "anonymous": false,
      "inputs": [
        {
          "indexed": true,
          "internalType": "address",
          "name": "patient",
          "type": "address"
        },
        {
          "indexed": true,
          "internalType": "address",
          "name": "doctor",
          "type": "address"
        }
      ],
      "name": "PermissionGranted",
      "type": "event"
    },
    {
      "anonymous": false,
      "inputs": [
        {
          "indexed": true,
          "internalType": "address",
          "name": "patient",
          "type": "address"
        },
        {
          "indexed": true,
          "internalType": "address",
          "name": "doctor",
          "type": "address"
        }
      ],
      "name": "PermissionRevoked",
      "type": "event"
    },
    {
      "inputs": [
        {
          "internalType": "address",
          "name": "",
          "type": "address"
        },
        {
          "internalType": "uint256",
          "name": "",
          "type": "uint256"
        }
      ],
      "name": "appointments",
      "outputs": [
        {
          "internalType": "address",
          "name": "doctoraddr",
          "type": "address"
        },
        {
          "internalType": "address",
          "name": "patientaddr",
          "type": "address"
        },
        {
          "internalType": "string",
          "name": "date",
          "type": "string"
        },
        {
          "internalType": "string",
          "name": "time",
          "type": "string"
        },
        {
          "internalType": "string",
          "name": "prescription",
          "type": "string"
        },
        {
          "internalType": "string",
          "name": "description",
          "type": "string"
        },
        {
          "internalType": "string",
          "name": "diagnosis",
          "type": "string"
        },
        {
          "internalType": "string",
          "name": "status",
          "type": "string"
        },
        {
          "internalType": "uint256",
          "name": "creationDate",
          "type": "uint256"
        }
      ],
      "stateMutability": "view",
      "type": "function"
    },
    {
      "inputs": [
        {
          "internalType": "address",
          "name": "_patient",
          "type": "address"
        },
        {
          "internalType": "string",
          "name": "_date",
          "type": "string"
        },
        {
          "internalType": "string",
          "name": "_time",
          "type": "string"
        },
        {
          "internalType": "string",
          "name": "_diagnosis",
          "type": "string"
        },
        {
          "internalType": "string",
          "name": "_prescription",
          "type": "string"
        },
        {
          "internalType": "string",
          "name": "_description",
          "type": "string"
        },
        {
          "internalType": "string",
          "name": "_status",
          "type": "string"
        }
      ],
      "name": "createAppointment",
      "outputs": [],
      "stateMutability": "nonpayable",
      "type": "function"
    },
    {
      "inputs": [],
      "name": "doctorCount",
      "outputs": [
        {
          "internalType": "uint256",
          "name": "",
          "type": "uint256"
        }
      ],
      "stateMutability": "view",
      "type": "function"
    },
    {
      "inputs": [
        {
          "internalType": "uint256",
          "name": "",
          "type": "uint256"
        }
      ],
      "name": "doctorList",
      "outputs": [
        {
          "internalType": "address",
          "name": "",
          "type": "address"
        }
      ],
      "stateMutability": "view",
      "type": "function"
    },
    {
      "inputs": [
        {
          "internalType": "address",
          "name": "",
          "type": "address"
        }
      ],
      "name": "doctors",
      "outputs": [
        {
          "internalType": "string",
          "name": "ic",
          "type": "string"
        },
        {
          "internalType": "string",
          "name": "name",
          "type": "string"
        },
        {
          "internalType": "string",
          "name": "phone",
          "type": "string"
        },
        {
          "internalType": "string",
          "name": "gender",
          "type": "string"
        },
        {
          "internalType": "string",
          "name": "dob",
          "type": "string"
        },
        {
          "internalType": "string",
          "name": "qualification",
          "type": "string"
        },
        {
          "internalType": "string",
          "name": "major",
          "type": "string"
        },
        {
          "internalType": "address",
          "name": "addr",
          "type": "address"
        },
        {
          "internalType": "uint256",
          "name": "date",
          "type": "uint256"
        }
      ],
      "stateMutability": "view",
      "type": "function"
    },
    {
      "inputs": [
        {
          "internalType": "string",
          "name": "_ic",
          "type": "string"
        },
        {
          "internalType": "string",
          "name": "_name",
          "type": "string"
        },
        {
          "internalType": "string",
          "name": "_phone",
          "type": "string"
        },
        {
          "internalType": "string",
          "name": "_gender",
          "type": "string"
        },
        {
          "internalType": "string",
          "name": "_dob",
          "type": "string"
        },
        {
          "internalType": "string",
          "name": "_qualification",
          "type": "string"
        },
        {
          "internalType": "string",
          "name": "_major",
          "type": "string"
        }
      ],
      "name": "editDoctor",
      "outputs": [],
      "stateMutability": "nonpayable",
      "type": "function"
    },
    {
      "inputs": [
        {
          "internalType": "string",
          "name": "_ic",
          "type": "string"
        },
        {
          "internalType": "string",
          "name": "_name",
          "type": "string"
        },
        {
          "internalType": "string",
          "name": "_phone",
          "type": "string"
        },
        {
          "internalType": "string",
          "name": "_gender",
          "type": "string"
        },
        {
          "internalType": "string",
          "name": "_dob",
          "type": "string"
        },
        {
          "internalType": "string",
          "name": "_height",
          "type": "string"
        },
        {
          "internalType": "string",
          "name": "_weight",
          "type": "string"
        },
        {
          "internalType": "string",
          "name": "_houseaddr",
          "type": "string"
        },
        {
          "internalType": "string",
          "name": "_bloodgroup",
          "type": "string"
        },
        {
          "internalType": "string",
          "name": "_allergies",
          "type": "string"
        },
        {
          "internalType": "string",
          "name": "_medication",
          "type": "string"
        },
        {
          "internalType": "string",
          "name": "_emergencyName",
          "type": "string"
        },
        {
          "internalType": "string",
          "name": "_emergencyContact",
          "type": "string"
        },
        {
          "internalType": "string",
          "name": "_ipfsHash",
          "type": "string"
        }
      ],
      "name": "editPatient",
      "outputs": [],
      "stateMutability": "nonpayable",
      "type": "function"
    },
    {
      "inputs": [
        {
          "internalType": "address",
          "name": "_patient",
          "type": "address"
        }
      ],
      "name": "getAppointments",
      "outputs": [
        {
          "components": [
            {
              "internalType": "address",
              "name": "doctoraddr",
              "type": "address"
            },
            {
              "internalType": "address",
              "name": "patientaddr",
              "type": "address"
            },
            {
              "internalType": "string",
              "name": "date",
              "type": "string"
            },
            {
              "internalType": "string",
              "name": "time",
              "type": "string"
            },
            {
              "internalType": "string",
              "name": "prescription",
              "type": "string"
            },
            {
              "internalType": "string",
              "name": "description",
              "type": "string"
            },
            {
              "internalType": "string",
              "name": "diagnosis",
              "type": "string"
            },
            {
              "internalType": "string",
              "name": "status",
              "type": "string"
            },
            {
              "internalType": "uint256",
              "name": "creationDate",
              "type": "uint256"
            }
          ],
          "internalType": "struct Record.Appointment[]",
          "name": "",
          "type": "tuple[]"
        }
      ],
      "stateMutability": "view",
      "type": "function"
    },
    {
      "inputs": [
        {
          "internalType": "address",
          "name": "_doctor",
          "type": "address"
        }
      ],
      "name": "getDoctor",
      "outputs": [
        {
          "components": [
            {
              "internalType": "string",
              "name": "ic",
              "type": "string"
            },
            {
              "internalType": "string",
              "name": "name",
              "type": "string"
            },
            {
              "internalType": "string",
              "name": "phone",
              "type": "string"
            },
            {
              "internalType": "string",
              "name": "gender",
              "type": "string"
            },
            {
              "internalType": "string",
              "name": "dob",
              "type": "string"
            },
            {
              "internalType": "string",
              "name": "qualification",
              "type": "string"
            },
            {
              "internalType": "string",
              "name": "major",
              "type": "string"
            },
            {
              "internalType": "address",
              "name": "addr",
              "type": "address"
            },
            {
              "internalType": "uint256",
              "name": "date",
              "type": "uint256"
            }
          ],
          "internalType": "struct Record.Doctor",
          "name": "",
          "type": "tuple"
        }
      ],
      "stateMutability": "view",
      "type": "function"
    },
    {
      "inputs": [],
      "name": "getDoctorCount",
      "outputs": [
        {
          "internalType": "uint256",
          "name": "",
          "type": "uint256"
        }
      ],
      "stateMutability": "view",
      "type": "function"
    },
    {
      "inputs": [],
      "name": "getDoctorList",
      "outputs": [
        {
          "internalType": "address[]",
          "name": "",
          "type": "address[]"
        }
      ],
      "stateMutability": "view",
      "type": "function"
    },
    {
      "inputs": [
        {
          "internalType": "address",
          "name": "_patient",
          "type": "address"
        }
      ],
      "name": "getPatient",
      "outputs": [
        {
          "components": [
            {
              "internalType": "string",
              "name": "ic",
              "type": "string"
            },
            {
              "internalType": "string",
              "name": "name",
              "type": "string"
            },
            {
              "internalType": "string",
              "name": "phone",
              "type": "string"
            },
            {
              "internalType": "string",
              "name": "gender",
              "type": "string"
            },
            {
              "internalType": "string",
              "name": "dob",
              "type": "string"
            },
            {
              "internalType": "string",
              "name": "height",
              "type": "string"
            },
            {
              "internalType": "string",
              "name": "weight",
              "type": "string"
            },
            {
              "internalType": "string",
              "name": "houseaddr",
              "type": "string"
            },
            {
              "internalType": "string",
              "name": "bloodgroup",
              "type": "string"
            },
            {
              "internalType": "string",
              "name": "allergies",
              "type": "string"
            },
            {
              "internalType": "string",
              "name": "medication",
              "type": "string"
            },
            {
              "internalType": "string",
              "name": "emergencyName",
              "type": "string"
            },
            {
              "internalType": "string",
              "name": "emergencyContact",
              "type": "string"
            },
            {
              "internalType": "string",
              "name": "ipfsHash",
              "type": "string"
            },
            {
              "internalType": "address",
              "name": "addr",
              "type": "address"
            },
            {
              "internalType": "uint256",
              "name": "date",
              "type": "uint256"
            }
          ],
          "internalType": "struct Record.Patient",
          "name": "",
          "type": "tuple"
        }
      ],
      "stateMutability": "view",
      "type": "function"
    },
    {
      "inputs": [],
      "name": "getPatientCount",
      "outputs": [
        {
          "internalType": "uint256",
          "name": "",
          "type": "uint256"
        }
      ],
      "stateMutability": "view",
      "type": "function"
    },
    {
      "inputs": [
        {
          "internalType": "address",
          "name": "_patient",
          "type": "address"
        }
      ],
      "name": "getPatientIPFS",
      "outputs": [
        {
          "internalType": "string",
          "name": "",
          "type": "string"
        }
      ],
      "stateMutability": "view",
      "type": "function"
    },
    {
      "inputs": [],
      "name": "getPatientList",
      "outputs": [
        {
          "internalType": "address[]",
          "name": "",
          "type": "address[]"
        }
      ],
      "stateMutability": "view",
      "type": "function"
    },
    {
      "inputs": [
        {
          "internalType": "address",
          "name": "_doctor",
          "type": "address"
        }
      ],
      "name": "grantPermission",
      "outputs": [],
      "stateMutability": "nonpayable",
      "type": "function"
    },
    {
      "inputs": [
        {
          "internalType": "address",
          "name": "",
          "type": "address"
        },
        {
          "internalType": "address",
          "name": "",
          "type": "address"
        }
      ],
      "name": "isApproved",
      "outputs": [
        {
          "internalType": "bool",
          "name": "",
          "type": "bool"
        }
      ],
      "stateMutability": "view",
      "type": "function"
    },
    {
      "inputs": [
        {
          "internalType": "address",
          "name": "",
          "type": "address"
        }
      ],
      "name": "isDoctor",
      "outputs": [
        {
          "internalType": "bool",
          "name": "",
          "type": "bool"
        }
      ],
      "stateMutability": "view",
      "type": "function"
    },
    {
      "inputs": [
        {
          "internalType": "address",
          "name": "",
          "type": "address"
        }
      ],
      "name": "isPatient",
      "outputs": [
        {
          "internalType": "bool",
          "name": "",
          "type": "bool"
        }
      ],
      "stateMutability": "view",
      "type": "function"
    },
    {
      "inputs": [],
      "name": "owner",
      "outputs": [
        {
          "internalType": "address",
          "name": "",
          "type": "address"
        }
      ],
      "stateMutability": "view",
      "type": "function"
    },
    {
      "inputs": [],
      "name": "patientCount",
      "outputs": [
        {
          "internalType": "uint256",
          "name": "",
          "type": "uint256"
        }
      ],
      "stateMutability": "view",
      "type": "function"
    },
    {
      "inputs": [
        {
          "internalType": "uint256",
          "name": "",
          "type": "uint256"
        }
      ],
      "name": "patientList",
      "outputs": [
        {
          "internalType": "address",
          "name": "",
          "type": "address"
        }
      ],
      "stateMutability": "view",
      "type": "function"
    },
    {
      "inputs": [
        {
          "internalType": "address",
          "name": "",
          "type": "address"
        }
      ],
      "name": "patients",
      "outputs": [
        {
          "internalType": "string",
          "name": "ic",
          "type": "string"
        },
        {
          "internalType": "string",
          "name": "name",
          "type": "string"
        },
        {
          "internalType": "string",
          "name": "phone",
          "type": "string"
        },
        {
          "internalType": "string",
          "name": "gender",
          "type": "string"
        },
        {
          "internalType": "string",
          "name": "dob",
          "type": "string"
        },
        {
          "internalType": "string",
          "name": "height",
          "type": "string"
        },
        {
          "internalType": "string",
          "name": "weight",
          "type": "string"
        },
        {
          "internalType": "string",
          "name": "houseaddr",
          "type": "string"
        },
        {
          "internalType": "string",
          "name": "bloodgroup",
          "type": "string"
        },
        {
          "internalType": "string",
          "name": "allergies",
          "type": "string"
        },
        {
          "internalType": "string",
          "name": "medication",
          "type": "string"
        },
        {
          "internalType": "string",
          "name": "emergencyName",
          "type": "string"
        },
        {
          "internalType": "string",
          "name": "emergencyContact",
          "type": "string"
        },
        {
          "internalType": "string",
          "name": "ipfsHash",
          "type": "string"
        },
        {
          "internalType": "address",
          "name": "addr",
          "type": "address"
        },
        {
          "internalType": "uint256",
          "name": "date",
          "type": "uint256"
        }
      ],
      "stateMutability": "view",
      "type": "function"
    },
    {
      "inputs": [],
      "name": "permissionGrantedCount",
      "outputs": [
        {
          "internalType": "uint256",
          "name": "",
          "type": "uint256"
        }
      ],
      "stateMutability": "view",
      "type": "function"
    },
    {
      "inputs": [
        {
          "internalType": "string",
          "name": "_ic",
          "type": "string"
        },
        {
          "internalType": "string",
          "name": "_name",
          "type": "string"
        },
        {
          "internalType": "string",
          "name": "_phone",
          "type": "string"
        },
        {
          "internalType": "string",
          "name": "_gender",
          "type": "string"
        },
        {
          "internalType": "string",
          "name": "_dob",
          "type": "string"
        },
        {
          "internalType": "string",
          "name": "_qualification",
          "type": "string"
        },
        {
          "internalType": "string",
          "name": "_major",
          "type": "string"
        }
      ],
      "name": "registerDoctor",
      "outputs": [],
      "stateMutability": "nonpayable",
      "type": "function"
    },
    {
      "inputs": [
        {
          "internalType": "string",
          "name": "_ic",
          "type": "string"
        },
        {
          "internalType": "string",
          "name": "_name",
          "type": "string"
        },
        {
          "internalType": "string",
          "name": "_phone",
          "type": "string"
        },
        {
          "internalType": "string",
          "name": "_gender",
          "type": "string"
        },
        {
          "internalType": "string",
          "name": "_dob",
          "type": "string"
        },
        {
          "internalType": "string",
          "name": "_height",
          "type": "string"
        },
        {
          "internalType": "string",
          "name": "_weight",
          "type": "string"
        },
        {
          "internalType": "string",
          "name": "_houseaddr",
          "type": "string"
        },
        {
          "internalType": "string",
          "name": "_bloodgroup",
          "type": "string"
        },
        {
          "internalType": "string",
          "name": "_allergies",
          "type": "string"
        },
        {
          "internalType": "string",
          "name": "_medication",
          "type": "string"
        },
        {
          "internalType": "string",
          "name": "_emergencyName",
          "type": "string"
        },
        {
          "internalType": "string",
          "name": "_emergencyContact",
          "type": "string"
        },
        {
          "internalType": "string",
          "name": "_ipfsHash",
          "type": "string"
        }
      ],
      "name": "registerPatient",
      "outputs": [],
      "stateMutability": "nonpayable",
      "type": "function"
    },
    {
      "inputs": [
        {
          "internalType": "address",
          "name": "_doctor",
          "type": "address"
        }
      ],
      "name": "revokePermission",
      "outputs": [],
      "stateMutability": "nonpayable",
      "type": "function"
    }
  ],
  "bytecode": "0x6080806040523461002857600080546001600160a01b03191633179055615478908161002e8239f35b600080fdfe60a0604052600436101561001257600080fd5b60003560e01c806302911c3914614de557806307c98156146145045780630869cfbc146142da5780630d7c3ea0146139925780630de66d0214612816578063127ca4b4146127bb5780632d8e3278146127235780632f04e06414612505578063503b13541461248157806378522bc41461246357806379111c1c146124635780637b75cfb61461221957806382593333146121a65780638da5cb5b1461217d5780638f9c79ed1461213e578063996440c6146120ff578063a0303c41146111d6578063a389783e146120a5578063a3bf5b9a1461201e578063a5aca8bc146117b8578063a71aefc914611724578063a9583c2214611605578063b5368e201461126d578063babb1d4114611212578063c0cb24ba146111f4578063c190665b146111d65763d3ba54131461014557600080fd5b346111d157610153366151c5565b9b9a909a99919998929897939796949633600052600460205261017d60ff6040600020541661538c565b60206040519e8f9061018e82614f94565b8152015260408d015260608c015260808b015260a08a015260c089015260e08801526101008701526101208601526101408501526101608401526101808301526101a0820152336101c0820152426101e082015233600052600160205260406000209080519182516001600160401b03811161080a5761020e8254614f3e565b601f811161118d575b506020601f8211600114611125578192939460009261111a575b50508160011b916000199060031b1c19161781555b60208201519182516001600160401b03811161080a576102696001840154614f3e565b601f81116110d3575b506020601f8211600114611065578192939460009261105a575b50508160011b916000199060031b1c19161760018301555b60408101519182516001600160401b03811161080a576102c76002830154614f3e565b601f8111611013575b506020601f8211600114610fa55781929394600092610f9a575b50508160011b916000199060031b1c19161760028201555b60608201519182516001600160401b03811161080a576103256003840154614f3e565b601f8111610f53575b506020601f8211600114610ee55781929394600092610eda575b50508160011b916000199060031b1c19161760038301555b60808101519182516001600160401b03811161080a576103836004830154614f3e565b601f8111610e93575b506020601f8211600114610e255781929394600092610e1a575b50508160011b916000199060031b1c19161760048201555b60a08201519182516001600160401b03811161080a576103e16005840154614f3e565b601f8111610dd3575b506020601f8211600114610d655781929394600092610d5a575b50508160011b916000199060031b1c19161760058301555b60c08101519182516001600160401b03811161080a5761043f6006830154614f3e565b601f8111610d13575b506020601f8211600114610ca55781929394600092610c9a575b50508160011b916000199060031b1c19161760068201555b60e08201519182516001600160401b03811161080a5761049d6007840154614f3e565b601f8111610c53575b506020601f8211600114610be55781929394600092610bda575b50508160011b916000199060031b1c19161760078301555b6101008101519182516001600160401b03811161080a576104fc6008830154614f3e565b601f8111610b93575b506020601f8211600114610b275781929394600092610b1c575b50508160011b916000199060031b1c19161760088201555b6101208201519182516001600160401b03811161080a5761055b6009840154614f3e565b601f8111610ad5575b506020601f8211600114610a695781929394600092610a5e575b50508160011b916000199060031b1c19161760098301555b6101408101519182516001600160401b03811161080a576105ba600a830154614f3e565b601f8111610a17575b506020601f82116001146109ab57819293946000926109a0575b50508160011b916000199060031b1c191617600a8201555b6101608201519182516001600160401b03811161080a57610619600b840154614f3e565b601f8111610959575b506020601f82116001146108ed57819293946000926108e2575b50508160011b916000199060031b1c191617600b8301555b6101808101519182516001600160401b03811161080a57610678600c830154614f3e565b601f8111610897575b506020601f821160011461082b5781929394600092610820575b50508160011b916000199060031b1c191617600c8201555b600d8101916101a08101519283516001600160401b03811161080a576106d98254614f3e565b601f81116107c2575b506020601f82116001146107535790806101e0949392600f9697600092610748575b50508160011b916000199060031b1c19161790555b6101c0810151600e850180546001600160a01b0319166001600160a01b03929092169190911790550151910155005b015190503880610704565b601f198216958360005260206000209660005b8181106107aa57509660019284926101e0979695600f999a10610791575b505050811b019055610719565b015160001960f88460031b161c19169055388080610784565b83830151895560019098019760209384019301610766565b826000526020600020601f830160051c81019160208410610800575b601f0160051c01905b8181106107f457506106e2565b600081556001016107e7565b90915081906107de565b634e487b7160e01b600052604160045260246000fd5b01519050388061069b565b601f19821690600c840160005260206000209160005b81811061087f57509583600195969710610866575b505050811b01600c8201556106b3565b015160001960f88460031b161c19169055388080610856565b9192602060018192868b015181550194019201610841565b600c83016000526020600020601f830160051c810191602084106108d8575b601f0160051c01905b8181106108cc5750610681565b600081556001016108bf565b90915081906108b6565b01519050388061063c565b601f19821690600b850160005260206000209160005b81811061094157509583600195969710610928575b505050811b01600b830155610654565b015160001960f88460031b161c19169055388080610918565b9192602060018192868b015181550194019201610903565b600b84016000526020600020601f830160051c810160208410610999575b601f830160051c8201811061098d575050610622565b60008155600101610977565b5080610977565b0151905038806105dd565b601f19821690600a840160005260206000209160005b8181106109ff575095836001959697106109e6575b505050811b01600a8201556105f5565b015160001960f88460031b161c191690553880806109d6565b9192602060018192868b0151815501940192016109c1565b600a83016000526020600020601f830160051c810160208410610a57575b601f830160051c82018110610a4b5750506105c3565b60008155600101610a35565b5080610a35565b01519050388061057e565b601f198216906009850160005260206000209160005b818110610abd57509583600195969710610aa4575b505050811b016009830155610596565b015160001960f88460031b161c19169055388080610a94565b9192602060018192868b015181550194019201610a7f565b600984016000526020600020601f830160051c810160208410610b15575b601f830160051c82018110610b09575050610564565b60008155600101610af3565b5080610af3565b01519050388061051f565b600883016000526020600020906000601f198416905b818110610b7b57509583600195969710610b62575b505050811b016008820155610537565b015160001960f88460031b161c19169055388080610b52565b9192602060018192868b015181550194019201610b3d565b600883016000526020600020601f830160051c810160208410610bd3575b601f830160051c82018110610bc7575050610505565b60008155600101610bb1565b5080610bb1565b0151905038806104c0565b6007840160005260206000209060005b601f1984168110610c3b5750600193949583601f19811610610c22575b505050811b0160078301556104d8565b015160001960f88460031b161c19169055388080610c12565b9091602060018192858a015181550193019101610bf5565b600784016000526020600020601f830160051c810160208410610c93575b601f830160051c82018110610c875750506104a6565b60008155600101610c71565b5080610c71565b015190503880610462565b6006830160005260206000209060005b601f1984168110610cfb5750600193949583601f19811610610ce2575b505050811b01600682015561047a565b015160001960f88460031b161c19169055388080610cd2565b9091602060018192858a015181550193019101610cb5565b600683016000526020600020601f830160051c810160208410610d53575b601f830160051c82018110610d47575050610448565b60008155600101610d31565b5080610d31565b015190503880610404565b6005840160005260206000209060005b601f1984168110610dbb5750600193949583601f19811610610da2575b505050811b01600583015561041c565b015160001960f88460031b161c19169055388080610d92565b9091602060018192858a015181550193019101610d75565b600584016000526020600020601f830160051c810160208410610e13575b601f830160051c82018110610e075750506103ea565b60008155600101610df1565b5080610df1565b0151905038806103a6565b6004830160005260206000209060005b601f1984168110610e7b5750600193949583601f19811610610e62575b505050811b0160048201556103be565b015160001960f88460031b161c19169055388080610e52565b9091602060018192858a015181550193019101610e35565b600483016000526020600020601f830160051c810160208410610ed3575b601f830160051c82018110610ec757505061038c565b60008155600101610eb1565b5080610eb1565b015190503880610348565b6003840160005260206000209060005b601f1984168110610f3b5750600193949583601f19811610610f22575b505050811b016003830155610360565b015160001960f88460031b161c19169055388080610f12565b9091602060018192858a015181550193019101610ef5565b600384016000526020600020601f830160051c810160208410610f93575b601f830160051c82018110610f8757505061032e565b60008155600101610f71565b5080610f71565b0151905038806102ea565b6002830160005260206000209060005b601f1984168110610ffb5750600193949583601f19811610610fe2575b505050811b016002820155610302565b015160001960f88460031b161c19169055388080610fd2565b9091602060018192858a015181550193019101610fb5565b600283016000526020600020601f830160051c810160208410611053575b601f830160051c820181106110475750506102d0565b60008155600101611031565b5080611031565b01519050388061028c565b6001840160005260206000209060005b601f19841681106110bb5750600193949583601f198116106110a2575b505050811b0160018301556102a4565b015160001960f88460031b161c19169055388080611092565b9091602060018192858a015181550193019101611075565b600184016000526020600020601f830160051c810160208410611113575b601f830160051c82018110611107575050610272565b600081556001016110f1565b50806110f1565b015190503880610231565b8260005260206000209060005b601f19841681106111755750600193949583601f1981161061115c575b505050811b018155610246565b015160001960f88460031b161c1916905538808061114f565b9091602060018192858a015181550193019101611132565b826000526020600020601f830160051c8101602084106111ca575b601f830160051c820181106111be575050610217565b600081556001016111a8565b50806111a8565b600080fd5b346111d15760003660031901126111d1576020600954604051908152f35b346111d15760003660031901126111d1576020600b54604051908152f35b346111d15760203660031901126111d1576004356007548110156111d15760076000527fa66cc928b5edb82af9bd49922954155ab7b0942694bea4ce44661d9a8736c68801546040516001600160a01b039091168152602090f35b346111d15760203660031901126111d157611286614f0c565b60006101e060405161129781614f94565b60608152606060208201526060604082015260608082015260606080820152606060a0820152606060c0820152606060e08201526060610100820152606061012082015260606101408201526060610160820152606061018082015260606101a0820152826101c0820152015260018060a01b031680331480156115dc575b61131f90615405565b60005260016020526040600020600f6040519161133b83614f94565b61134481614fd1565b835261135260018201614fd1565b602084015261136360028201614fd1565b604084015261137460038201614fd1565b606084015261138560048201614fd1565b608084015261139660058201614fd1565b60a08401526113a760068201614fd1565b60c08401526113b860078201614fd1565b60e08401526113c960088201614fd1565b6101008401526113db60098201614fd1565b6101208401526113ed600a8201614fd1565b6101408401526113ff600b8201614fd1565b610160840152611411600c8201614fd1565b610180840152611423600d8201614fd1565b6101a084015260018060a01b03600e820154166101c084015201546101e08201526040518091602082526101e06115bc6115a461158c61157461155c61154461152c6115156114ff6114e98b8d60806114d46114bf6114a961149386516102006020880152610220870190615077565b6020870151868203601f19016040880152615077565b6040860151858203601f19016060870152615077565b6060850151848203601f190184860152615077565b9201519060a0601f1982850301910152615077565b60a08c01518d8203601f190160c08f0152615077565b60c08b01518c8203601f190160e08e0152615077565b60e08a01518b8203601f19016101008d0152615077565b6101008901518a8203601f19016101208c0152615077565b610120880151898203601f19016101408b0152615077565b610140870151888203601f19016101608a0152615077565b610160860151878203601f1901610180890152615077565b610180850151868203601f19016101a0880152615077565b6101a0840151858203601f19016101c0870152615077565b6101c08301516001600160a01b0316848301529101516102008301520390f35b5080600052600660205260406000203360005260205261131f60ff604060002054169050611316565b346111d15760203660031901126111d1576001600160a01b0380611627614f0c565b166000526002602052604060002061163e81614fd1565b9061164b60018201614fd1565b9261165860028301614fd1565b9061166560038401614fd1565b61167160048501614fd1565b61167d60058601614fd1565b9161168a60068701614fd1565b93600787015416956008015494604051988998610120808b528a016116ae91615077565b89810360208b01526116bf91615077565b88810360408a01526116d091615077565b87810360608901526116e191615077565b86810360808801526116f291615077565b85810360a087015261170391615077565b84810360c086015261171491615077565b9160e08401526101008301520390f35b346111d15760003660031901126111d157604051806008549182815260208091019260086000527ff3f7a9fe364faab93b216da50a3214154f22a0a2b415b23a84c8169e8b636ee3916000905b828210611798576117948561178881890382614fb0565b60405191829182615323565b0390f35b83546001600160a01b031686529485019460019384019390910190611771565b346111d1576117c63661510d565b949390939291923360005260056020526117e760ff6040600020541661538c565b604051966117f488614f78565b8752602087015260408601526060850152608084015260a083015260c08201523360e082015242610100820152336000526002602052604060002081519182516001600160401b03811161080a5761184c8354614f3e565b601f8111611fda575b506020601f8211600114611f745781929394600092611f69575b50508160011b916000199060031b1c19161782555b60208101519182516001600160401b03811161080a576118a76001830154614f3e565b601f8111611f22575b506020601f8211600114611eb65781929394600092611eab575b50508160011b916000199060031b1c19161760018201555b60408201519182516001600160401b03811161080a576119056002840154614f3e565b601f8111611e64575b506020601f8211600114611df85781929394600092611ded575b50508160011b916000199060031b1c19161760028301555b60608101519182516001600160401b03811161080a576119636003830154614f3e565b601f8111611da6575b506020601f8211600114611d3a5781929394600092611d2f575b50508160011b916000199060031b1c19161760038201555b60808201519182516001600160401b03811161080a576119c16004840154614f3e565b601f8111611ce8575b506020601f8211600114611c7c5781929394600092611c71575b50508160011b916000199060031b1c19161760048301555b60a08101519182516001600160401b03811161080a57611a1f6005830154614f3e565b601f8111611c26575b506020601f8211600114611bba5781929394600092611baf575b50508160011b916000199060031b1c19161760058201555b600681019160c08101519283516001600160401b03811161080a57611a7f8254614f3e565b601f8111611b67575b506020601f8211600114611af857908061010094939260089697600092611aed575b50508160011b916000199060031b1c19161790555b60e08101516007850180546001600160a01b0319166001600160a01b03929092169190911790550151910155005b015190508780611aaa565b601f198216958360005260206000209660005b818110611b4f57509660019284926101009796956008999a10611b36575b505050811b019055611abf565b015160001960f88460031b161c19169055878080611b29565b83830151895560019098019760209384019301611b0b565b826000526020600020601f830160051c81019160208410611ba5575b601f0160051c01905b818110611b995750611a88565b60008155600101611b8c565b9091508190611b83565b015190508480611a42565b601f198216906005840160005260206000209160005b818110611c0e57509583600195969710611bf5575b505050811b016005820155611a5a565b015160001960f88460031b161c19169055848080611be5565b9192602060018192868b015181550194019201611bd0565b600583016000526020600020601f830160051c81019160208410611c67575b601f0160051c01905b818110611c5b5750611a28565b60008155600101611c4e565b9091508190611c45565b0151905084806119e4565b601f198216906004850160005260206000209160005b818110611cd057509583600195969710611cb7575b505050811b0160048301556119fc565b015160001960f88460031b161c19169055848080611ca7565b9192602060018192868b015181550194019201611c92565b600484016000526020600020601f830160051c810160208410611d28575b601f830160051c82018110611d1c5750506119ca565b60008155600101611d06565b5080611d06565b015190508480611986565b601f198216906003840160005260206000209160005b818110611d8e57509583600195969710611d75575b505050811b01600382015561199e565b015160001960f88460031b161c19169055848080611d65565b9192602060018192868b015181550194019201611d50565b600383016000526020600020601f830160051c810160208410611de6575b601f830160051c82018110611dda57505061196c565b60008155600101611dc4565b5080611dc4565b015190508480611928565b601f198216906002850160005260206000209160005b818110611e4c57509583600195969710611e33575b505050811b016002830155611940565b015160001960f88460031b161c19169055848080611e23565b9192602060018192868b015181550194019201611e0e565b600284016000526020600020601f830160051c810160208410611ea4575b601f830160051c82018110611e9857505061190e565b60008155600101611e82565b5080611e82565b0151905084806118ca565b601f198216906001840160005260206000209160005b818110611f0a57509583600195969710611ef1575b505050811b0160018201556118e2565b015160001960f88460031b161c19169055848080611ee1565b9192602060018192868b015181550194019201611ecc565b600183016000526020600020601f830160051c810160208410611f62575b601f830160051c82018110611f565750506118b0565b60008155600101611f40565b5080611f40565b01519050848061186f565b836000526020600020906000601f198416905b818110611fc257509583600195969710611fa9575b505050811b018255611884565b015160001960f88460031b161c19169055848080611f9c565b9192602060018192868b015181550194019201611f87565b836000526020600020601f830160051c810160208410612017575b601f830160051c8201811061200b575050611855565b60008155600101611ff5565b5080611ff5565b346111d15760203660031901126111d157612037614f0c565b33600052600460205261205160ff604060002054166153c9565b33600052600660205260406000209060018060a01b03169081600052602052604060002060ff198154169055337f5f708ef9fc37d19d88246c264788c8cdf640c9ff500bd168e941ea1421c4f6c4600080a3005b346111d15760403660031901126111d1576120be614f0c565b6001600160a01b0360243581811692908390036111d157166000526006602052604060002090600052602052602060ff604060002054166040519015158152f35b346111d15760203660031901126111d1576001600160a01b03612120614f0c565b166000526005602052602060ff604060002054166040519015158152f35b346111d15760203660031901126111d1576001600160a01b0361215f614f0c565b166000526004602052602060ff604060002054166040519015158152f35b346111d15760003660031901126111d1576000546040516001600160a01b039091168152602090f35b346111d1576020806003193601126111d1576001600160a01b036121c8614f0c565b16806000526006825260406000203360005282526121ed60ff60406000205416615405565b60005260018152612204600d604060002001614fd1565b90611794604051928284938452830190615077565b346111d1576020806003193601126111d1576001600160a01b038061223c614f0c565b168033148015612444575b61225090615405565b6000526003918281526040600020908154906001600160401b03821161080a57929390604051906005926122888683861b0184614fb0565b81835260009485528585208684019591865b84841061239b575050505050604051938085019181865251809252604082818701941b86010193926000965b8388106122d35786860387f35b90919293948380600192603f198a82030186528851908582511681528583830151168382015261237f61236d61235a61234761233461232160408801516101208060408a0152880190615077565b6060808901519088830390890152615077565b6080808801519087830390880152615077565b60a0808701519086830390870152615077565b60c0808601519085830390860152615077565b60e084015183820360e0850152615077565b91610100809101519101529701930197019690939291936122c6565b6009896001928c6123ff8b9e9d9a9b604051926123b784614f78565b808a54168452878a015416858401526123d260028a01614fd1565b60408401526123e2888a01614fd1565b60608401526123f360048a01614fd1565b60808401528801614fd1565b60a082015261241060068801614fd1565b60c082015261242160078801614fd1565b60e08201526008870154610100820152815201930193019291989594979861229a565b506000818152600684526040808220338352855290205460ff16612247565b346111d15760003660031901126111d1576020600a54604051908152f35b346111d15760003660031901126111d157604051806007549182815260208091019260076000527fa66cc928b5edb82af9bd49922954155ab7b0942694bea4ce44661d9a8736c688916000905b8282106124e5576117948561178881890382614fb0565b83546001600160a01b0316865294850194600193840193909101906124ce565b346111d15760203660031901126111d15761251e614f0c565b600061010060405161252f81614f78565b60608152606060208201526060604082015260608082015260606080820152606060a0820152606060c08201528260e0820152015260018060a01b031680331480156126fa575b61257f90615405565b6000526002602052604060002060086040519161259b83614f78565b6125a481614fd1565b83526125b260018201614fd1565b60208401526125c360028201614fd1565b60408401526125d460038201614fd1565b60608401526125e560048201614fd1565b60808401526125f660058201614fd1565b60a084015261260760068201614fd1565b60c084015260018060a01b0360078201541660e0840152015461010082015260405180916020825280516101006126dd61264f61012093846020880152610140870190615077565b6126c86126b46126a061268c61267860208a015195601f19968c60408982850301910152615077565b60408a0151868c83030160608d0152615077565b6060890151858b83030160808c0152615077565b6080880151848a83030160a08b0152615077565b60a0870151838983030160c08a0152615077565b9060c0860151908783030160e0880152615077565b60e08401516001600160a01b031685830152920151908301520390f35b5080600052600660205260406000203360005260205261257f60ff604060002054169050612576565b346111d15760203660031901126111d15761273c614f0c565b33600052600460205261275660ff604060002054166153c9565b33600052600660205260406000209060018060a01b031690816000526020526040600020600160ff19825416179055612790600b54615367565b600b55337f0ceda602a8e00ef76afe24614343eb6c034877c816b6184d641d2d8b713a0fc6600080a3005b346111d15760203660031901126111d1576004356008548110156111d15760086000527ff3f7a9fe364faab93b216da50a3214154f22a0a2b415b23a84c8169e8b636ee301546040516001600160a01b039091168152602090f35b346111d157612824366151c5565b9b9a909a99919998929897939796949633600052600460205260ff604060002054166139585760206040519e8f9061285b82614f94565b8152015260408d015260608c015260808b015260a08a015260c089015260e08801526101008701526101208601526101408501526101608401526101808301526101a0820152336101c0820152426101e0820152336000526001602052604060002081519182516001600160401b03811161080a576128da8354614f3e565b601f8111613914575b506020601f82116001146138ac57819293946000926138a1575b50508160011b916000199060031b1c19161782555b60208101519182516001600160401b03811161080a576129356001830154614f3e565b601f811161385a575b506020601f82116001146137ec57819293946000926137e1575b50508160011b916000199060031b1c19161760018201555b60408201519182516001600160401b03811161080a576129936002840154614f3e565b601f811161379a575b506020601f821160011461372c5781929394600092613721575b50508160011b916000199060031b1c19161760028301555b60608101519182516001600160401b03811161080a576129f16003830154614f3e565b601f81116136da575b506020601f821160011461366c5781929394600092613661575b50508160011b916000199060031b1c19161760038201555b60808201519182516001600160401b03811161080a57612a4f6004840154614f3e565b601f811161361a575b506020601f82116001146135ac57819293946000926135a1575b50508160011b916000199060031b1c19161760048301555b60a08101519182516001600160401b03811161080a57612aad6005830154614f3e565b601f811161355a575b506020601f82116001146134ec57819293946000926134e1575b50508160011b916000199060031b1c19161760058201555b60c08201519182516001600160401b03811161080a57612b0b6006840154614f3e565b601f811161349a575b506020601f821160011461342c5781929394600092613421575b50508160011b916000199060031b1c19161760068301555b60e08101519182516001600160401b03811161080a57612b696007830154614f3e565b601f81116133da575b506020601f821160011461336c5781929394600092613361575b50508160011b916000199060031b1c19161760078201555b6101008201519182516001600160401b03811161080a57612bc86008840154614f3e565b601f811161331a575b506020601f82116001146132ac57819293946000926132a1575b50508160011b916000199060031b1c19161760088301555b6101208101519182516001600160401b03811161080a57612c276009830154614f3e565b601f811161325a575b506020601f82116001146131ec57819293946000926131e1575b50508160011b916000199060031b1c19161760098201555b6101408201519182516001600160401b03811161080a57612c86600a840154614f3e565b601f811161319a575b506020601f821160011461312c5781929394600092613121575b50508160011b916000199060031b1c191617600a8301555b6101608101519182516001600160401b03811161080a57612ce5600b830154614f3e565b601f81116130da575b506020601f821160011461306c5781929394600092613061575b50508160011b916000199060031b1c191617600b8201555b6101808201519182516001600160401b03811161080a57612d44600c840154614f3e565b601f811161301a575b506020601f8211600114612fac5781929394600092612fa1575b50508160011b916000199060031b1c191617600c8301555b6101a08101519182516001600160401b03811161080a57612da3600d830154614f3e565b601f8111612f56575b506020601f8211600114612eea5781929394600092612edf575b50508160011b916000199060031b1c191617600d8201555b600f6101e0600e83019360018060a01b036101c082015116946bffffffffffffffffffffffff60a01b95868254161790550151910155600754600160401b81101561080a576001810180600755811015612ec9577fa66cc928b5edb82af9bd49922954155ab7b0942694bea4ce44661d9a8736c68801903390825416179055336000526004602052604060002060ff1990600182825416179055600660205260406000206020526001604060002091825416179055612e9e600954615367565b600955337fc9fa2003fca4ce0dfc8cb0deae32266b715536df6685365b05b5be96ede8e49c600080a2005b634e487b7160e01b600052603260045260246000fd5b015190508480612dc6565b601f19821690600d840160005260206000209160005b818110612f3e57509583600195969710612f25575b505050811b01600d820155612dde565b015160001960f88460031b161c19169055848080612f15565b9192602060018192868b015181550194019201612f00565b600d83016000526020600020601f830160051c81019160208410612f97575b601f0160051c01905b818110612f8b5750612dac565b60008155600101612f7e565b9091508190612f75565b015190508480612d67565b600c840160005260206000209060005b601f19841681106130025750600193949583601f19811610612fe9575b505050811b01600c830155612d7f565b015160001960f88460031b161c19169055848080612fd9565b9091602060018192858a015181550193019101612fbc565b600c84016000526020600020601f830160051c81016020841061305a575b601f830160051c8201811061304e575050612d4d565b60008155600101613038565b5080613038565b015190508480612d08565b600b830160005260206000209060005b601f19841681106130c25750600193949583601f198116106130a9575b505050811b01600b820155612d20565b015160001960f88460031b161c19169055848080613099565b9091602060018192858a01518155019301910161307c565b600b83016000526020600020601f830160051c81016020841061311a575b601f830160051c8201811061310e575050612cee565b600081556001016130f8565b50806130f8565b015190508480612ca9565b600a840160005260206000209060005b601f19841681106131825750600193949583601f19811610613169575b505050811b01600a830155612cc1565b015160001960f88460031b161c19169055848080613159565b9091602060018192858a01518155019301910161313c565b600a84016000526020600020601f830160051c8101602084106131da575b601f830160051c820181106131ce575050612c8f565b600081556001016131b8565b50806131b8565b015190508480612c4a565b6009830160005260206000209060005b601f19841681106132425750600193949583601f19811610613229575b505050811b016009820155612c62565b015160001960f88460031b161c19169055848080613219565b9091602060018192858a0151815501930191016131fc565b600983016000526020600020601f830160051c81016020841061329a575b601f830160051c8201811061328e575050612c30565b60008155600101613278565b5080613278565b015190508480612beb565b6008840160005260206000209060005b601f19841681106133025750600193949583601f198116106132e9575b505050811b016008830155612c03565b015160001960f88460031b161c191690558480806132d9565b9091602060018192858a0151815501930191016132bc565b600884016000526020600020601f830160051c81016020841061335a575b601f830160051c8201811061334e575050612bd1565b60008155600101613338565b5080613338565b015190508480612b8c565b6007830160005260206000209060005b601f19841681106133c25750600193949583601f198116106133a9575b505050811b016007820155612ba4565b015160001960f88460031b161c19169055848080613399565b9091602060018192858a01518155019301910161337c565b600783016000526020600020601f830160051c81016020841061341a575b601f830160051c8201811061340e575050612b72565b600081556001016133f8565b50806133f8565b015190508480612b2e565b6006840160005260206000209060005b601f19841681106134825750600193949583601f19811610613469575b505050811b016006830155612b46565b015160001960f88460031b161c19169055848080613459565b9091602060018192858a01518155019301910161343c565b600684016000526020600020601f830160051c8101602084106134da575b601f830160051c820181106134ce575050612b14565b600081556001016134b8565b50806134b8565b015190508480612ad0565b6005830160005260206000209060005b601f19841681106135425750600193949583601f19811610613529575b505050811b016005820155612ae8565b015160001960f88460031b161c19169055848080613519565b9091602060018192858a0151815501930191016134fc565b600583016000526020600020601f830160051c81016020841061359a575b601f830160051c8201811061358e575050612ab6565b60008155600101613578565b5080613578565b015190508480612a72565b6004840160005260206000209060005b601f19841681106136025750600193949583601f198116106135e9575b505050811b016004830155612a8a565b015160001960f88460031b161c191690558480806135d9565b9091602060018192858a0151815501930191016135bc565b600484016000526020600020601f830160051c81016020841061365a575b601f830160051c8201811061364e575050612a58565b60008155600101613638565b5080613638565b015190508480612a14565b6003830160005260206000209060005b601f19841681106136c25750600193949583601f198116106136a9575b505050811b016003820155612a2c565b015160001960f88460031b161c19169055848080613699565b9091602060018192858a01518155019301910161367c565b600383016000526020600020601f830160051c81016020841061371a575b601f830160051c8201811061370e5750506129fa565b600081556001016136f8565b50806136f8565b0151905084806129b6565b6002840160005260206000209060005b601f19841681106137825750600193949583601f19811610613769575b505050811b0160028301556129ce565b015160001960f88460031b161c19169055848080613759565b9091602060018192858a01518155019301910161373c565b600284016000526020600020601f830160051c8101602084106137da575b601f830160051c820181106137ce57505061299c565b600081556001016137b8565b50806137b8565b015190508480612958565b6001830160005260206000209060005b601f19841681106138425750600193949583601f19811610613829575b505050811b016001820155612970565b015160001960f88460031b161c19169055848080613819565b9091602060018192858a0151815501930191016137fc565b600183016000526020600020601f830160051c81016020841061389a575b601f830160051c8201811061388e57505061293e565b60008155600101613878565b5080613878565b0151905084806128fd565b8360005260206000209060005b601f19841681106138fc5750600193949583601f198116106138e3575b505050811b018255612912565b015160001960f88460031b161c191690558480806138d6565b9091602060018192858a0151815501930191016138b9565b836000526020600020601f830160051c810160208410613951575b601f830160051c820181106139455750506128e3565b6000815560010161392f565b508061392f565b60405162461bcd60e51b8152602060048201526012602482015271105b1c9958591e481c9959da5cdd195c995960721b6044820152606490fd5b346111d1576139a03661510d565b9493909392919233600052600560205260ff6040600020541661429557604051966139ca88614f78565b8752602087015260408601526060850152608084015260a083015260c08201523360e08201524261010082015233600052600260205260406000209080519182516001600160401b03811161080a57613a238254614f3e565b601f8111614251575b506020601f82116001146141e957819293946000926141de575b50508160011b916000199060031b1c19161781555b60208201519182516001600160401b03811161080a57613a7e6001840154614f3e565b601f8111614197575b506020601f8211600114614129578192939460009261411e575b50508160011b916000199060031b1c19161760018301555b60408101519182516001600160401b03811161080a57613adc6002830154614f3e565b601f81116140d7575b506020601f8211600114614069578192939460009261405e575b50508160011b916000199060031b1c19161760028201555b60608201519182516001600160401b03811161080a57613b3a6003840154614f3e565b601f8111614017575b506020601f8211600114613fa95781929394600092613f9e575b50508160011b916000199060031b1c19161760038301555b60808101519182516001600160401b03811161080a57613b986004830154614f3e565b601f8111613f57575b506020601f8211600114613ee95781929394600092613ede575b50508160011b916000199060031b1c19161760048201555b60a08201519182516001600160401b03811161080a57613bf66005840154614f3e565b601f8111613e97575b506020601f8211600114613e295781929394600092613e1e575b50508160011b916000199060031b1c19161760058301555b60c08101519182516001600160401b03811161080a57613c546006830154614f3e565b601f8111613dd3575b506020601f8211600114613d675781929394600092613d5c575b50508160011b916000199060031b1c19161760068201555b6008610100600783019360018060a01b0360e082015116946bffffffffffffffffffffffff60a01b95868254161790550151910155600854600160401b81101561080a576001810180600855811015612ec9577ff3f7a9fe364faab93b216da50a3214154f22a0a2b415b23a84c8169e8b636ee3019033908254161790553360005260056020526040600020600160ff19825416179055613d31600a54615367565b600a55337f2dc8105a7545248d0e354c4c6b02fb583071cc719fb4bef1ca74d72d475570bc600080a2005b015190508480613c77565b601f198216906006840160005260206000209160005b818110613dbb57509583600195969710613da2575b505050811b016006820155613c8f565b015160001960f88460031b161c19169055848080613d92565b9192602060018192868b015181550194019201613d7d565b600683016000526020600020601f830160051c81019160208410613e14575b601f0160051c01905b818110613e085750613c5d565b60008155600101613dfb565b9091508190613df2565b015190508480613c19565b6005840160005260206000209060005b601f1984168110613e7f5750600193949583601f19811610613e66575b505050811b016005830155613c31565b015160001960f88460031b161c19169055848080613e56565b9091602060018192858a015181550193019101613e39565b600584016000526020600020601f830160051c810160208410613ed7575b601f830160051c82018110613ecb575050613bff565b60008155600101613eb5565b5080613eb5565b015190508480613bbb565b6004830160005260206000209060005b601f1984168110613f3f5750600193949583601f19811610613f26575b505050811b016004820155613bd3565b015160001960f88460031b161c19169055848080613f16565b9091602060018192858a015181550193019101613ef9565b600483016000526020600020601f830160051c810160208410613f97575b601f830160051c82018110613f8b575050613ba1565b60008155600101613f75565b5080613f75565b015190508480613b5d565b6003840160005260206000209060005b601f1984168110613fff5750600193949583601f19811610613fe6575b505050811b016003830155613b75565b015160001960f88460031b161c19169055848080613fd6565b9091602060018192858a015181550193019101613fb9565b600384016000526020600020601f830160051c810160208410614057575b601f830160051c8201811061404b575050613b43565b60008155600101614035565b5080614035565b015190508480613aff565b6002830160005260206000209060005b601f19841681106140bf5750600193949583601f198116106140a6575b505050811b016002820155613b17565b015160001960f88460031b161c19169055848080614096565b9091602060018192858a015181550193019101614079565b600283016000526020600020601f830160051c810160208410614117575b601f830160051c8201811061410b575050613ae5565b600081556001016140f5565b50806140f5565b015190508480613aa1565b6001840160005260206000209060005b601f198416811061417f5750600193949583601f19811610614166575b505050811b016001830155613ab9565b015160001960f88460031b161c19169055848080614156565b9091602060018192858a015181550193019101614139565b600184016000526020600020601f830160051c8101602084106141d7575b601f830160051c820181106141cb575050613a87565b600081556001016141b5565b50806141b5565b015190508480613a46565b8260005260206000209060005b601f19841681106142395750600193949583601f19811610614220575b505050811b018155613a5b565b015160001960f88460031b161c19169055848080614213565b9091602060018192858a0151815501930191016141f6565b826000526020600020601f830160051c81016020841061428e575b601f830160051c82018110614282575050613a2c565b6000815560010161426c565b508061426c565b60405162461bcd60e51b815260206004820152601960248201527f446f63746f7220616c72656164792072656769737465726564000000000000006044820152606490fd5b346111d15760203660031901126111d1576001600160a01b03806142fc614f0c565b166000526001602052604060002090818061431681614fd1565b9261432360018301614fd1565b61432f60028401614fd1565b61433b60038501614fd1565b61434760048601614fd1565b61435360058701614fd1565b61435f60068801614fd1565b9061436c60078901614fd1565b9261437960088a01614fd1565b9461438660098b01614fd1565b96614393600a8c01614fd1565b986143a0600b8d01614fd1565b9a6143ad600c8e01614fd1565b9c600d016143ba90614fd1565b9d600e0154169e600f01549d60405180608052610200809152608051016143e091615077565b60805180820390602001526143f491615077565b608051808203906040015261440891615077565b608051808203906060015261441c91615077565b608051808203906080015261443091615077565b6080518082039060a0015261444491615077565b6080518082039060c0015261445891615077565b6080518082039060e0015261446c91615077565b60805180820390610100015261448191615077565b60805180820390610120015261449691615077565b6080518082039061014001526144ab91615077565b6080518082039061016001526144c091615077565b6080518082039061018001526144d591615077565b608051808203906101a001526144ea91615077565b916080516101c001526080516101e0015260805180910390f35b346111d15760e03660031901126111d15761451d614f0c565b6024356001600160401b0381116111d15761453c9036906004016150b7565b6044356001600160401b0381116111d15761455b9036906004016150b7565b6064356001600160401b0381116111d15761457a9036906004016150b7565b6084356001600160401b0381116111d1576145999036906004016150b7565b9060a4356001600160401b0381116111d1576145b99036906004016150b7565b60c4356001600160401b0381116111d1576145d89036906004016150b7565b9233600052600560205260ff6040600020541615614db15760018060a01b03871660005260036020526040600020946040519661461488614f78565b3388526001600160a01b038916602089015260408801526060870152608086015260a085015260c084015260e0830152426101008301528054600160401b81101561080a5761466891600182018155614f22565b929092614d9b57815183546001600160a01b039182166001600160a01b03199182161785556020840151600186018054919093169116179055604082015180519093906001600160401b03811161080a576146c66002830154614f3e565b601f8111614d54575b506020601f8211600114614ce5578192939495600092614cda575b50508160011b916000199060031b1c19161760028201555b60608301519283516001600160401b03811161080a576147256003840154614f3e565b601f8111614c93575b506020601f8211600114614c26578192939495600092614c1b575b50508160011b916000199060031b1c19161760038301555b60808101519283516001600160401b03811161080a576147846004850154614f3e565b601f8111614bd4575b50602094601f8211600114614b6857948192939495600092614b5d575b50508160011b916000199060031b1c19161760048401555b60a08201519283516001600160401b03811161080a576147e56005830154614f3e565b601f8111614b16575b50602094601f8211600114614aaa57948192939495600092614a9f575b50508160011b916000199060031b1c19161760058201555b60c08301519283516001600160401b03811161080a576148466006840154614f3e565b601f8111614a58575b50602094601f82116001146149ec579481929394956000926149e1575b50508160011b916000199060031b1c19161760068301555b6007820160e08201518051906001600160401b03821161080a576148a88354614f3e565b601f8111614999575b50602090601f831160011461492a57918061010094926008969460009261491f575b50508160011b916000199060031b1c19161790555b015191015533906001600160a01b03167ff99ba6e36c1b5e3e60990bcbc89ad127e7b5c511cb7093f94adeb5f668cf0356600080a3005b0151905088806148d3565b90601f198316918460005260206000209260005b818110614981575092600192859260089896610100989610614968575b505050811b0190556148e8565b015160001960f88460031b161c1916905588808061495b565b9293602060018192878601518155019501930161493e565b836000526020600020601f840160051c810191602085106149d7575b601f0160051c01905b8181106149cb57506148b1565b600081556001016149be565b90915081906149b5565b01519050858061486c565b601f198216956006850160005260206000209160005b888110614a4057508360019596979810614a27575b505050811b016006830155614884565b015160001960f88460031b161c19169055858080614a17565b91926020600181928685015181550194019201614a02565b600684016000526020600020601f830160051c810160208410614a98575b601f830160051c82018110614a8c57505061484f565b60008155600101614a76565b5080614a76565b01519050858061480b565b601f198216956005840160005260206000209160005b888110614afe57508360019596979810614ae5575b505050811b016005820155614823565b015160001960f88460031b161c19169055858080614ad5565b91926020600181928685015181550194019201614ac0565b600583016000526020600020601f830160051c810160208410614b56575b601f830160051c82018110614b4a5750506147ee565b60008155600101614b34565b5080614b34565b0151905085806147aa565b601f198216956004860160005260206000209160005b888110614bbc57508360019596979810614ba3575b505050811b0160048401556147c2565b015160001960f88460031b161c19169055858080614b93565b91926020600181928685015181550194019201614b7e565b600485016000526020600020601f830160051c810160208410614c14575b601f830160051c82018110614c0857505061478d565b60008155600101614bf2565b5080614bf2565b015190508580614749565b60038401600052602060002090600096601f198416975b888110614c7b57508360019596979810614c62575b505050811b016003830155614761565b015160001960f88460031b161c19169055858080614c52565b91926020600181928685015181550194019201614c3d565b600384016000526020600020601f830160051c810160208410614cd3575b601f830160051c82018110614cc757505061472e565b60008155600101614cb1565b5080614cb1565b0151905085806146ea565b6002830160005260206000209060005b601f1984168110614d3c575060019394959683601f19811610614d23575b505050811b016002820155614702565b015160001960f88460031b161c19169055858080614d13565b9091602060018192858b015181550193019101614cf5565b600283016000526020600020601f830160051c810160208410614d94575b601f830160051c82018110614d885750506146cf565b60008155600101614d72565b5080614d72565b634e487b7160e01b600052600060045260246000fd5b60405162461bcd60e51b815260206004820152600c60248201526b4f6e6c7920646f63746f727360a01b6044820152606490fd5b346111d15760403660031901126111d157614dfe614f0c565b6001600160a01b0390811660009081526003602052604090208054602435908110156111d157614e2d91614f22565b50805460018201548316921690614e4660028201614fd1565b90614e5360038201614fd1565b614e5f60048301614fd1565b614e6b60058401614fd1565b90614e7860068501614fd1565b92614e8560078601614fd1565b946008015495604051988998895260208901526101208060408a01528801614eac91615077565b8781036060890152614ebd91615077565b8681036080880152614ece91615077565b85810360a0870152614edf91615077565b84810360c0860152614ef091615077565b83810360e0850152614f0191615077565b906101008301520390f35b600435906001600160a01b03821682036111d157565b8054821015612ec9576000526009602060002091020190600090565b90600182811c92168015614f6e575b6020831014614f5857565b634e487b7160e01b600052602260045260246000fd5b91607f1691614f4d565b61012081019081106001600160401b0382111761080a57604052565b61020081019081106001600160401b0382111761080a57604052565b90601f801991011681019081106001600160401b0382111761080a57604052565b9060405191826000825492614fe584614f3e565b9081845260019485811690816000146150545750600114615011575b505061500f92500383614fb0565b565b9093915060005260209081600020936000915b81831061503c57505061500f93508201013880615001565b85548884018501529485019487945091830191615024565b91505061500f94506020925060ff191682840152151560051b8201013880615001565b919082519283825260005b8481106150a3575050826000602080949584010152601f8019910116010190565b602081830181015184830182015201615082565b81601f820112156111d1578035906001600160401b03821161080a57604051926150eb601f8401601f191660200185614fb0565b828452602083830101116111d157816000926020809301838601378301015290565b9060e06003198301126111d1576001600160401b0390600480358381116111d1578461513a9183016150b7565b936024358481116111d157816151519184016150b7565b936044358181116111d157826151689185016150b7565b936064358281116111d1578361517f9186016150b7565b936084358381116111d157846151969183016150b7565b9360a4358481116111d157816151ad9184016150b7565b9360c4359081116111d1576151c292016150b7565b90565b906101c06003198301126111d15760048035926001600160401b03938481116111d157816151f49184016150b7565b936024358181116111d1578261520b9185016150b7565b936044358281116111d157836152229186016150b7565b936064358381116111d157846152399183016150b7565b936084358481116111d157816152509184016150b7565b9360a4358181116111d157826152679185016150b7565b9360c4358281116111d1578361527e9186016150b7565b9360e4358381116111d157846152959183016150b7565b93610104358481116111d157816152ad9184016150b7565b93610124358181116111d157826152c59185016150b7565b93610144358281116111d157836152dd9186016150b7565b93610164358381116111d157846152f59183016150b7565b93610184358481116111d1578161530d9184016150b7565b936101a4359081116111d1576151c292016150b7565b6020908160408183019282815285518094520193019160005b82811061534a575050505090565b83516001600160a01b03168552938101939281019260010161533c565b60001981146153765760010190565b634e487b7160e01b600052601160045260246000fd5b1561539357565b60405162461bcd60e51b815260206004820152600e60248201526d139bdd081c9959da5cdd195c995960921b6044820152606490fd5b156153d057565b60405162461bcd60e51b815260206004820152600d60248201526c4f6e6c792070617469656e747360981b6044820152606490fd5b1561540c57565b60405162461bcd60e51b815260206004820152600e60248201526d139bdd08185d5d1a1bdc9a5e995960921b6044820152606490fdfea264697066735822122050bbe20ee22fb9fc422b4b31b80ac86d8eb8a73c8b7dcc1881e88b7192f6c44f64736f6c63430008140033",
  "linkReferences": {},
  "deployedLinkReferences": {}
}