{
  "_format": "hh-sol-artifact-1",
  "contractName": "Record",
  "sourceName": "contracts/Record.sol",
  "abi": [
    {
      "inputs": [],
      "stateMutability": "nonpayable",
      "type": "constructor"
    },
    {
      "anonymous": false,
      "inputs": [
        {
          "indexed": true,
          "internalType": "address",
          "name": "patient",
          "type": "address"
        },
        {
          "indexed": true,
          "internalType": "address",
          "name": "doctor",
          "type": "address"
        }
      ],
      "name": "AppointmentCreated",
      "type": "event"
    },
    {
      "anonymous": false,
      "inputs": [
        {
          "indexed": true,
          "internalType": "address",
          "name": "doctor",
          "type": "address"
        }
      ],
      "name": "DoctorRegistered",
      "type": "event"
    },
    {
      "anonymous": false,
      "inputs": [
        {
          "indexed": true,
          "internalType": "address",
          "name": "patient",
          "type": "address"
        }
      ],
      "name": "PatientRegistered",
      "type": "event"
    },
    {
      "anonymous": false,
      "inputs": [
        {
          "indexed": true,
          "internalType": "address",
          "name": "patient",
          "type": "address"
        },
        {
          "indexed": true,
          "internalType": "address",
          "name": "doctor",
          "type": "address"
        }
      ],
      "name": "PermissionGranted",
      "type": "event"
    },
    {
      "anonymous": false,
      "inputs": [
        {
          "indexed": true,
          "internalType": "address",
          "name": "patient",
          "type": "address"
        },
        {
          "indexed": true,
          "internalType": "address",
          "name": "doctor",
          "type": "address"
        }
      ],
      "name": "PermissionRevoked",
      "type": "event"
    },
    {
      "inputs": [
        {
          "internalType": "address",
          "name": "",
          "type": "address"
        },
        {
          "internalType": "uint256",
          "name": "",
          "type": "uint256"
        }
      ],
      "name": "appointments",
      "outputs": [
        {
          "internalType": "address",
          "name": "doctoraddr",
          "type": "address"
        },
        {
          "internalType": "address",
          "name": "patientaddr",
          "type": "address"
        },
        {
          "internalType": "string",
          "name": "date",
          "type": "string"
        },
        {
          "internalType": "string",
          "name": "time",
          "type": "string"
        },
        {
          "internalType": "string",
          "name": "prescription",
          "type": "string"
        },
        {
          "internalType": "string",
          "name": "description",
          "type": "string"
        },
        {
          "internalType": "string",
          "name": "diagnosis",
          "type": "string"
        },
        {
          "internalType": "string",
          "name": "status",
          "type": "string"
        },
        {
          "internalType": "uint256",
          "name": "creationDate",
          "type": "uint256"
        }
      ],
      "stateMutability": "view",
      "type": "function"
    },
    {
      "inputs": [
        {
          "internalType": "address",
          "name": "_patient",
          "type": "address"
        },
        {
          "internalType": "string",
          "name": "_date",
          "type": "string"
        },
        {
          "internalType": "string",
          "name": "_time",
          "type": "string"
        },
        {
          "internalType": "string",
          "name": "_diagnosis",
          "type": "string"
        },
        {
          "internalType": "string",
          "name": "_prescription",
          "type": "string"
        },
        {
          "internalType": "string",
          "name": "_description",
          "type": "string"
        },
        {
          "internalType": "string",
          "name": "_status",
          "type": "string"
        }
      ],
      "name": "createAppointment",
      "outputs": [],
      "stateMutability": "nonpayable",
      "type": "function"
    },
    {
      "inputs": [],
      "name": "doctorCount",
      "outputs": [
        {
          "internalType": "uint256",
          "name": "",
          "type": "uint256"
        }
      ],
      "stateMutability": "view",
      "type": "function"
    },
    {
      "inputs": [
        {
          "internalType": "uint256",
          "name": "",
          "type": "uint256"
        }
      ],
      "name": "doctorList",
      "outputs": [
        {
          "internalType": "address",
          "name": "",
          "type": "address"
        }
      ],
      "stateMutability": "view",
      "type": "function"
    },
    {
      "inputs": [
        {
          "internalType": "address",
          "name": "",
          "type": "address"
        }
      ],
      "name": "doctors",
      "outputs": [
        {
          "internalType": "string",
          "name": "ic",
          "type": "string"
        },
        {
          "internalType": "string",
          "name": "name",
          "type": "string"
        },
        {
          "internalType": "string",
          "name": "phone",
          "type": "string"
        },
        {
          "internalType": "string",
          "name": "gender",
          "type": "string"
        },
        {
          "internalType": "string",
          "name": "dob",
          "type": "string"
        },
        {
          "internalType": "string",
          "name": "qualification",
          "type": "string"
        },
        {
          "internalType": "string",
          "name": "major",
          "type": "string"
        },
        {
          "internalType": "address",
          "name": "addr",
          "type": "address"
        },
        {
          "internalType": "uint256",
          "name": "date",
          "type": "uint256"
        }
      ],
      "stateMutability": "view",
      "type": "function"
    },
    {
      "inputs": [
        {
          "internalType": "string",
          "name": "_ic",
          "type": "string"
        },
        {
          "internalType": "string",
          "name": "_name",
          "type": "string"
        },
        {
          "internalType": "string",
          "name": "_phone",
          "type": "string"
        },
        {
          "internalType": "string",
          "name": "_gender",
          "type": "string"
        },
        {
          "internalType": "string",
          "name": "_dob",
          "type": "string"
        },
        {
          "internalType": "string",
          "name": "_qualification",
          "type": "string"
        },
        {
          "internalType": "string",
          "name": "_major",
          "type": "string"
        }
      ],
      "name": "editDoctor",
      "outputs": [],
      "stateMutability": "nonpayable",
      "type": "function"
    },
    {
      "inputs": [
        {
          "internalType": "string",
          "name": "_ic",
          "type": "string"
        },
        {
          "internalType": "string",
          "name": "_name",
          "type": "string"
        },
        {
          "internalType": "string",
          "name": "_phone",
          "type": "string"
        },
        {
          "internalType": "string",
          "name": "_gender",
          "type": "string"
        },
        {
          "internalType": "string",
          "name": "_dob",
          "type": "string"
        },
        {
          "internalType": "string",
          "name": "_height",
          "type": "string"
        },
        {
          "internalType": "string",
          "name": "_weight",
          "type": "string"
        },
        {
          "internalType": "string",
          "name": "_houseaddr",
          "type": "string"
        },
        {
          "internalType": "string",
          "name": "_bloodgroup",
          "type": "string"
        },
        {
          "internalType": "string",
          "name": "_allergies",
          "type": "string"
        },
        {
          "internalType": "string",
          "name": "_medication",
          "type": "string"
        },
        {
          "internalType": "string",
          "name": "_emergencyName",
          "type": "string"
        },
        {
          "internalType": "string",
          "name": "_emergencyContact",
          "type": "string"
        },
        {
          "internalType": "string",
          "name": "_ipfsHash",
          "type": "string"
        }
      ],
      "name": "editPatient",
      "outputs": [],
      "stateMutability": "nonpayable",
      "type": "function"
    },
    {
      "inputs": [
        {
          "internalType": "address",
          "name": "_patient",
          "type": "address"
        }
      ],
      "name": "getAppointments",
      "outputs": [
        {
          "components": [
            {
              "internalType": "address",
              "name": "doctoraddr",
              "type": "address"
            },
            {
              "internalType": "address",
              "name": "patientaddr",
              "type": "address"
            },
            {
              "internalType": "string",
              "name": "date",
              "type": "string"
            },
            {
              "internalType": "string",
              "name": "time",
              "type": "string"
            },
            {
              "internalType": "string",
              "name": "prescription",
              "type": "string"
            },
            {
              "internalType": "string",
              "name": "description",
              "type": "string"
            },
            {
              "internalType": "string",
              "name": "diagnosis",
              "type": "string"
            },
            {
              "internalType": "string",
              "name": "status",
              "type": "string"
            },
            {
              "internalType": "uint256",
              "name": "creationDate",
              "type": "uint256"
            }
          ],
          "internalType": "struct Record.Appointment[]",
          "name": "",
          "type": "tuple[]"
        }
      ],
      "stateMutability": "view",
      "type": "function"
    },
    {
      "inputs": [],
      "name": "getDoctorCount",
      "outputs": [
        {
          "internalType": "uint256",
          "name": "",
          "type": "uint256"
        }
      ],
      "stateMutability": "view",
      "type": "function"
    },
    {
      "inputs": [],
      "name": "getDoctorList",
      "outputs": [
        {
          "internalType": "address[]",
          "name": "",
          "type": "address[]"
        }
      ],
      "stateMutability": "view",
      "type": "function"
    },
    {
      "inputs": [],
      "name": "getPatientCount",
      "outputs": [
        {
          "internalType": "uint256",
          "name": "",
          "type": "uint256"
        }
      ],
      "stateMutability": "view",
      "type": "function"
    },
    {
      "inputs": [
        {
          "internalType": "address",
          "name": "_patient",
          "type": "address"
        }
      ],
      "name": "getPatientIPFS",
      "outputs": [
        {
          "internalType": "string",
          "name": "",
          "type": "string"
        }
      ],
      "stateMutability": "view",
      "type": "function"
    },
    {
      "inputs": [],
      "name": "getPatientList",
      "outputs": [
        {
          "internalType": "address[]",
          "name": "",
          "type": "address[]"
        }
      ],
      "stateMutability": "view",
      "type": "function"
    },
    {
      "inputs": [
        {
          "internalType": "address",
          "name": "_doctor",
          "type": "address"
        }
      ],
      "name": "grantPermission",
      "outputs": [],
      "stateMutability": "nonpayable",
      "type": "function"
    },
    {
      "inputs": [
        {
          "internalType": "address",
          "name": "",
          "type": "address"
        },
        {
          "internalType": "address",
          "name": "",
          "type": "address"
        }
      ],
      "name": "isApproved",
      "outputs": [
        {
          "internalType": "bool",
          "name": "",
          "type": "bool"
        }
      ],
      "stateMutability": "view",
      "type": "function"
    },
    {
      "inputs": [
        {
          "internalType": "address",
          "name": "",
          "type": "address"
        }
      ],
      "name": "isDoctor",
      "outputs": [
        {
          "internalType": "bool",
          "name": "",
          "type": "bool"
        }
      ],
      "stateMutability": "view",
      "type": "function"
    },
    {
      "inputs": [
        {
          "internalType": "address",
          "name": "",
          "type": "address"
        }
      ],
      "name": "isPatient",
      "outputs": [
        {
          "internalType": "bool",
          "name": "",
          "type": "bool"
        }
      ],
      "stateMutability": "view",
      "type": "function"
    },
    {
      "inputs": [],
      "name": "owner",
      "outputs": [
        {
          "internalType": "address",
          "name": "",
          "type": "address"
        }
      ],
      "stateMutability": "view",
      "type": "function"
    },
    {
      "inputs": [],
      "name": "patientCount",
      "outputs": [
        {
          "internalType": "uint256",
          "name": "",
          "type": "uint256"
        }
      ],
      "stateMutability": "view",
      "type": "function"
    },
    {
      "inputs": [
        {
          "internalType": "uint256",
          "name": "",
          "type": "uint256"
        }
      ],
      "name": "patientList",
      "outputs": [
        {
          "internalType": "address",
          "name": "",
          "type": "address"
        }
      ],
      "stateMutability": "view",
      "type": "function"
    },
    {
      "inputs": [
        {
          "internalType": "address",
          "name": "",
          "type": "address"
        }
      ],
      "name": "patients",
      "outputs": [
        {
          "internalType": "string",
          "name": "ic",
          "type": "string"
        },
        {
          "internalType": "string",
          "name": "name",
          "type": "string"
        },
        {
          "internalType": "string",
          "name": "phone",
          "type": "string"
        },
        {
          "internalType": "string",
          "name": "gender",
          "type": "string"
        },
        {
          "internalType": "string",
          "name": "dob",
          "type": "string"
        },
        {
          "internalType": "string",
          "name": "height",
          "type": "string"
        },
        {
          "internalType": "string",
          "name": "weight",
          "type": "string"
        },
        {
          "internalType": "string",
          "name": "houseaddr",
          "type": "string"
        },
        {
          "internalType": "string",
          "name": "bloodgroup",
          "type": "string"
        },
        {
          "internalType": "string",
          "name": "allergies",
          "type": "string"
        },
        {
          "internalType": "string",
          "name": "medication",
          "type": "string"
        },
        {
          "internalType": "string",
          "name": "emergencyName",
          "type": "string"
        },
        {
          "internalType": "string",
          "name": "emergencyContact",
          "type": "string"
        },
        {
          "internalType": "string",
          "name": "ipfsHash",
          "type": "string"
        },
        {
          "internalType": "address",
          "name": "addr",
          "type": "address"
        },
        {
          "internalType": "uint256",
          "name": "date",
          "type": "uint256"
        }
      ],
      "stateMutability": "view",
      "type": "function"
    },
    {
      "inputs": [],
      "name": "permissionGrantedCount",
      "outputs": [
        {
          "internalType": "uint256",
          "name": "",
          "type": "uint256"
        }
      ],
      "stateMutability": "view",
      "type": "function"
    },
    {
      "inputs": [
        {
          "internalType": "string",
          "name": "_ic",
          "type": "string"
        },
        {
          "internalType": "string",
          "name": "_name",
          "type": "string"
        },
        {
          "internalType": "string",
          "name": "_phone",
          "type": "string"
        },
        {
          "internalType": "string",
          "name": "_gender",
          "type": "string"
        },
        {
          "internalType": "string",
          "name": "_dob",
          "type": "string"
        },
        {
          "internalType": "string",
          "name": "_qualification",
          "type": "string"
        },
        {
          "internalType": "string",
          "name": "_major",
          "type": "string"
        }
      ],
      "name": "registerDoctor",
      "outputs": [],
      "stateMutability": "nonpayable",
      "type": "function"
    },
    {
      "inputs": [
        {
          "internalType": "string",
          "name": "_ic",
          "type": "string"
        },
        {
          "internalType": "string",
          "name": "_name",
          "type": "string"
        },
        {
          "internalType": "string",
          "name": "_phone",
          "type": "string"
        },
        {
          "internalType": "string",
          "name": "_gender",
          "type": "string"
        },
        {
          "internalType": "string",
          "name": "_dob",
          "type": "string"
        },
        {
          "internalType": "string",
          "name": "_height",
          "type": "string"
        },
        {
          "internalType": "string",
          "name": "_weight",
          "type": "string"
        },
        {
          "internalType": "string",
          "name": "_houseaddr",
          "type": "string"
        },
        {
          "internalType": "string",
          "name": "_bloodgroup",
          "type": "string"
        },
        {
          "internalType": "string",
          "name": "_allergies",
          "type": "string"
        },
        {
          "internalType": "string",
          "name": "_medication",
          "type": "string"
        },
        {
          "internalType": "string",
          "name": "_emergencyName",
          "type": "string"
        },
        {
          "internalType": "string",
          "name": "_emergencyContact",
          "type": "string"
        },
        {
          "internalType": "string",
          "name": "_ipfsHash",
          "type": "string"
        }
      ],
      "name": "registerPatient",
      "outputs": [],
      "stateMutability": "nonpayable",
      "type": "function"
    },
    {
      "inputs": [
        {
          "internalType": "address",
          "name": "_doctor",
          "type": "address"
        }
      ],
      "name": "revokePermission",
      "outputs": [],
      "stateMutability": "nonpayable",
      "type": "function"
    }
  ],
  "bytecode": "0x6080806040523461002857600080546001600160a01b03191633179055614f6e908161002e8239f35b600080fdfe60a0604052600436101561001257600080fd5b60003560e01c806302911c391461495457806307c981561461404a5780630869cfbc14613e205780630d7c3ea0146134d85780630de66d0214612351578063127ca4b4146122f65780632d8e32781461221c578063503b13541461219857806378522bc41461217a57806379111c1c1461217a5780637b75cfb614611f305780638259333314611ebd5780638da5cb5b14611e945780638f9c79ed14611e55578063996440c614611e16578063a0303c4114611201578063a389783e14611dbc578063a3bf5b9a14611cf3578063a5aca8bc1461144b578063a71aefc9146113b7578063a9583c2214611298578063babb1d411461123d578063c0cb24ba1461121f578063c190665b146112015763d3ba54131461012f57600080fd5b346111fc5761013d36614d34565b9b9a909a99919998929897939796949633600052600460205260ff60406000205416156111b85760206040519e8f9061017582614b03565b8152015260408d015260608c015260808b015260a08a015260c089015260e08801526101008701526101208601526101408501526101608401526101808301526101a0820152336101c0820152426101e082015233600052600160205260406000209080519182516001600160401b0381116107f1576101f58254614aad565b601f8111611174575b506020601f821160011461110c5781929394600092611101575b50508160011b916000199060031b1c19161781555b60208201519182516001600160401b0381116107f1576102506001840154614aad565b601f81116110ba575b506020601f821160011461104c5781929394600092611041575b50508160011b916000199060031b1c19161760018301555b60408101519182516001600160401b0381116107f1576102ae6002830154614aad565b601f8111610ffa575b506020601f8211600114610f8c5781929394600092610f81575b50508160011b916000199060031b1c19161760028201555b60608201519182516001600160401b0381116107f15761030c6003840154614aad565b601f8111610f3a575b506020601f8211600114610ecc5781929394600092610ec1575b50508160011b916000199060031b1c19161760038301555b60808101519182516001600160401b0381116107f15761036a6004830154614aad565b601f8111610e7a575b506020601f8211600114610e0c5781929394600092610e01575b50508160011b916000199060031b1c19161760048201555b60a08201519182516001600160401b0381116107f1576103c86005840154614aad565b601f8111610dba575b506020601f8211600114610d4c5781929394600092610d41575b50508160011b916000199060031b1c19161760058301555b60c08101519182516001600160401b0381116107f1576104266006830154614aad565b601f8111610cfa575b506020601f8211600114610c8c5781929394600092610c81575b50508160011b916000199060031b1c19161760068201555b60e08201519182516001600160401b0381116107f1576104846007840154614aad565b601f8111610c3a575b506020601f8211600114610bcc5781929394600092610bc1575b50508160011b916000199060031b1c19161760078301555b6101008101519182516001600160401b0381116107f1576104e36008830154614aad565b601f8111610b7a575b506020601f8211600114610b0e5781929394600092610b03575b50508160011b916000199060031b1c19161760088201555b6101208201519182516001600160401b0381116107f1576105426009840154614aad565b601f8111610abc575b506020601f8211600114610a505781929394600092610a45575b50508160011b916000199060031b1c19161760098301555b6101408101519182516001600160401b0381116107f1576105a1600a830154614aad565b601f81116109fe575b506020601f82116001146109925781929394600092610987575b50508160011b916000199060031b1c191617600a8201555b6101608201519182516001600160401b0381116107f157610600600b840154614aad565b601f8111610940575b506020601f82116001146108d457819293946000926108c9575b50508160011b916000199060031b1c191617600b8301555b6101808101519182516001600160401b0381116107f15761065f600c830154614aad565b601f811161087e575b506020601f82116001146108125781929394600092610807575b50508160011b916000199060031b1c191617600c8201555b600d8101916101a08101519283516001600160401b0381116107f1576106c08254614aad565b601f81116107a9575b506020601f821160011461073a5790806101e0949392600f969760009261072f575b50508160011b916000199060031b1c19161790555b6101c0810151600e850180546001600160a01b0319166001600160a01b03929092169190911790550151910155005b0151905038806106eb565b601f198216958360005260206000209660005b81811061079157509660019284926101e0979695600f999a10610778575b505050811b019055610700565b015160001960f88460031b161c1916905538808061076b565b8383015189556001909801976020938401930161074d565b826000526020600020601f830160051c810191602084106107e7575b601f0160051c01905b8181106107db57506106c9565b600081556001016107ce565b90915081906107c5565b634e487b7160e01b600052604160045260246000fd5b015190503880610682565b601f19821690600c840160005260206000209160005b8181106108665750958360019596971061084d575b505050811b01600c82015561069a565b015160001960f88460031b161c1916905538808061083d565b9192602060018192868b015181550194019201610828565b600c83016000526020600020601f830160051c810191602084106108bf575b601f0160051c01905b8181106108b35750610668565b600081556001016108a6565b909150819061089d565b015190503880610623565b601f19821690600b850160005260206000209160005b8181106109285750958360019596971061090f575b505050811b01600b83015561063b565b015160001960f88460031b161c191690553880806108ff565b9192602060018192868b0151815501940192016108ea565b600b84016000526020600020601f830160051c810160208410610980575b601f830160051c82018110610974575050610609565b6000815560010161095e565b508061095e565b0151905038806105c4565b601f19821690600a840160005260206000209160005b8181106109e6575095836001959697106109cd575b505050811b01600a8201556105dc565b015160001960f88460031b161c191690553880806109bd565b9192602060018192868b0151815501940192016109a8565b600a83016000526020600020601f830160051c810160208410610a3e575b601f830160051c82018110610a325750506105aa565b60008155600101610a1c565b5080610a1c565b015190503880610565565b601f198216906009850160005260206000209160005b818110610aa457509583600195969710610a8b575b505050811b01600983015561057d565b015160001960f88460031b161c19169055388080610a7b565b9192602060018192868b015181550194019201610a66565b600984016000526020600020601f830160051c810160208410610afc575b601f830160051c82018110610af057505061054b565b60008155600101610ada565b5080610ada565b015190503880610506565b600883016000526020600020906000601f198416905b818110610b6257509583600195969710610b49575b505050811b01600882015561051e565b015160001960f88460031b161c19169055388080610b39565b9192602060018192868b015181550194019201610b24565b600883016000526020600020601f830160051c810160208410610bba575b601f830160051c82018110610bae5750506104ec565b60008155600101610b98565b5080610b98565b0151905038806104a7565b6007840160005260206000209060005b601f1984168110610c225750600193949583601f19811610610c09575b505050811b0160078301556104bf565b015160001960f88460031b161c19169055388080610bf9565b9091602060018192858a015181550193019101610bdc565b600784016000526020600020601f830160051c810160208410610c7a575b601f830160051c82018110610c6e57505061048d565b60008155600101610c58565b5080610c58565b015190503880610449565b6006830160005260206000209060005b601f1984168110610ce25750600193949583601f19811610610cc9575b505050811b016006820155610461565b015160001960f88460031b161c19169055388080610cb9565b9091602060018192858a015181550193019101610c9c565b600683016000526020600020601f830160051c810160208410610d3a575b601f830160051c82018110610d2e57505061042f565b60008155600101610d18565b5080610d18565b0151905038806103eb565b6005840160005260206000209060005b601f1984168110610da25750600193949583601f19811610610d89575b505050811b016005830155610403565b015160001960f88460031b161c19169055388080610d79565b9091602060018192858a015181550193019101610d5c565b600584016000526020600020601f830160051c810160208410610dfa575b601f830160051c82018110610dee5750506103d1565b60008155600101610dd8565b5080610dd8565b01519050388061038d565b6004830160005260206000209060005b601f1984168110610e625750600193949583601f19811610610e49575b505050811b0160048201556103a5565b015160001960f88460031b161c19169055388080610e39565b9091602060018192858a015181550193019101610e1c565b600483016000526020600020601f830160051c810160208410610eba575b601f830160051c82018110610eae575050610373565b60008155600101610e98565b5080610e98565b01519050388061032f565b6003840160005260206000209060005b601f1984168110610f225750600193949583601f19811610610f09575b505050811b016003830155610347565b015160001960f88460031b161c19169055388080610ef9565b9091602060018192858a015181550193019101610edc565b600384016000526020600020601f830160051c810160208410610f7a575b601f830160051c82018110610f6e575050610315565b60008155600101610f58565b5080610f58565b0151905038806102d1565b6002830160005260206000209060005b601f1984168110610fe25750600193949583601f19811610610fc9575b505050811b0160028201556102e9565b015160001960f88460031b161c19169055388080610fb9565b9091602060018192858a015181550193019101610f9c565b600283016000526020600020601f830160051c81016020841061103a575b601f830160051c8201811061102e5750506102b7565b60008155600101611018565b5080611018565b015190503880610273565b6001840160005260206000209060005b601f19841681106110a25750600193949583601f19811610611089575b505050811b01600183015561028b565b015160001960f88460031b161c19169055388080611079565b9091602060018192858a01518155019301910161105c565b600184016000526020600020601f830160051c8101602084106110fa575b601f830160051c820181106110ee575050610259565b600081556001016110d8565b50806110d8565b015190503880610218565b8260005260206000209060005b601f198416811061115c5750600193949583601f19811610611143575b505050811b01815561022d565b015160001960f88460031b161c19169055388080611136565b9091602060018192858a015181550193019101611119565b826000526020600020601f830160051c8101602084106111b1575b601f830160051c820181106111a55750506101fe565b6000815560010161118f565b508061118f565b606460405162461bcd60e51b815260206004820152602060248201527f596f7520617265206e6f74206120726567697374657265642070617469656e746044820152fd5b600080fd5b346111fc5760003660031901126111fc576020600954604051908152f35b346111fc5760003660031901126111fc576020600b54604051908152f35b346111fc5760203660031901126111fc576004356007548110156111fc5760076000527fa66cc928b5edb82af9bd49922954155ab7b0942694bea4ce44661d9a8736c68801546040516001600160a01b039091168152602090f35b346111fc5760203660031901126111fc576001600160a01b03806112ba614a7b565b16600052600260205260406000206112d181614b40565b906112de60018201614b40565b926112eb60028301614b40565b906112f860038401614b40565b61130460048501614b40565b61131060058601614b40565b9161131d60068701614b40565b93600787015416956008015494604051988998610120808b528a0161134191614be6565b89810360208b015261135291614be6565b88810360408a015261136391614be6565b878103606089015261137491614be6565b868103608088015261138591614be6565b85810360a087015261139691614be6565b84810360c08601526113a791614be6565b9160e08401526101008301520390f35b346111fc5760003660031901126111fc57604051806008549182815260208091019260086000527ff3f7a9fe364faab93b216da50a3214154f22a0a2b415b23a84c8169e8b636ee3916000905b82821061142b576114278561141b81890382614b1f565b60405191829182614e92565b0390f35b83546001600160a01b031686529485019460019384019390910190611404565b346111fc5761145936614c7c565b9493909392919233600052600560205260ff6040600020541615611cae576040519661148488614ae7565b8752602087015260408601526060850152608084015260a083015260c08201523360e082015242610100820152336000526002602052604060002081519182516001600160401b0381116107f1576114dc8354614aad565b601f8111611c6a575b506020601f8211600114611c045781929394600092611bf9575b50508160011b916000199060031b1c19161782555b60208101519182516001600160401b0381116107f1576115376001830154614aad565b601f8111611bb2575b506020601f8211600114611b465781929394600092611b3b575b50508160011b916000199060031b1c19161760018201555b60408201519182516001600160401b0381116107f1576115956002840154614aad565b601f8111611af4575b506020601f8211600114611a885781929394600092611a7d575b50508160011b916000199060031b1c19161760028301555b60608101519182516001600160401b0381116107f1576115f36003830154614aad565b601f8111611a36575b506020601f82116001146119ca57819293946000926119bf575b50508160011b916000199060031b1c19161760038201555b60808201519182516001600160401b0381116107f1576116516004840154614aad565b601f8111611978575b506020601f821160011461190c5781929394600092611901575b50508160011b916000199060031b1c19161760048301555b60a08101519182516001600160401b0381116107f1576116af6005830154614aad565b601f81116118b6575b506020601f821160011461184a578192939460009261183f575b50508160011b916000199060031b1c19161760058201555b600681019160c08101519283516001600160401b0381116107f15761170f8254614aad565b601f81116117f7575b506020601f82116001146117885790806101009493926008969760009261177d575b50508160011b916000199060031b1c19161790555b60e08101516007850180546001600160a01b0319166001600160a01b03929092169190911790550151910155005b01519050878061173a565b601f198216958360005260206000209660005b8181106117df57509660019284926101009796956008999a106117c6575b505050811b01905561174f565b015160001960f88460031b161c191690558780806117b9565b8383015189556001909801976020938401930161179b565b826000526020600020601f830160051c81019160208410611835575b601f0160051c01905b8181106118295750611718565b6000815560010161181c565b9091508190611813565b0151905084806116d2565b601f198216906005840160005260206000209160005b81811061189e57509583600195969710611885575b505050811b0160058201556116ea565b015160001960f88460031b161c19169055848080611875565b9192602060018192868b015181550194019201611860565b600583016000526020600020601f830160051c810191602084106118f7575b601f0160051c01905b8181106118eb57506116b8565b600081556001016118de565b90915081906118d5565b015190508480611674565b601f198216906004850160005260206000209160005b81811061196057509583600195969710611947575b505050811b01600483015561168c565b015160001960f88460031b161c19169055848080611937565b9192602060018192868b015181550194019201611922565b600484016000526020600020601f830160051c8101602084106119b8575b601f830160051c820181106119ac57505061165a565b60008155600101611996565b5080611996565b015190508480611616565b601f198216906003840160005260206000209160005b818110611a1e57509583600195969710611a05575b505050811b01600382015561162e565b015160001960f88460031b161c191690558480806119f5565b9192602060018192868b0151815501940192016119e0565b600383016000526020600020601f830160051c810160208410611a76575b601f830160051c82018110611a6a5750506115fc565b60008155600101611a54565b5080611a54565b0151905084806115b8565b601f198216906002850160005260206000209160005b818110611adc57509583600195969710611ac3575b505050811b0160028301556115d0565b015160001960f88460031b161c19169055848080611ab3565b9192602060018192868b015181550194019201611a9e565b600284016000526020600020601f830160051c810160208410611b34575b601f830160051c82018110611b2857505061159e565b60008155600101611b12565b5080611b12565b01519050848061155a565b601f198216906001840160005260206000209160005b818110611b9a57509583600195969710611b81575b505050811b016001820155611572565b015160001960f88460031b161c19169055848080611b71565b9192602060018192868b015181550194019201611b5c565b600183016000526020600020601f830160051c810160208410611bf2575b601f830160051c82018110611be6575050611540565b60008155600101611bd0565b5080611bd0565b0151905084806114ff565b836000526020600020906000601f198416905b818110611c5257509583600195969710611c39575b505050811b018255611514565b015160001960f88460031b161c19169055848080611c2c565b9192602060018192868b015181550194019201611c17565b836000526020600020601f830160051c810160208410611ca7575b601f830160051c82018110611c9b5750506114e5565b60008155600101611c85565b5080611c85565b60405162461bcd60e51b815260206004820152601f60248201527f596f7520617265206e6f742061207265676973746572656420646f63746f72006044820152606490fd5b346111fc5760203660031901126111fc57611d0c614a7b565b33600052600460205260ff6040600020541615611d775733600052600660205260406000209060018060a01b03169081600052602052604060002060ff198154169055337f5f708ef9fc37d19d88246c264788c8cdf640c9ff500bd168e941ea1421c4f6c4600080a3005b60405162461bcd60e51b815260206004820152601f60248201527f4f6e6c792070617469656e74732063616e207265766f6b6520616363657373006044820152606490fd5b346111fc5760403660031901126111fc57611dd5614a7b565b6001600160a01b0360243581811692908390036111fc57166000526006602052604060002090600052602052602060ff604060002054166040519015158152f35b346111fc5760203660031901126111fc576001600160a01b03611e37614a7b565b166000526005602052602060ff604060002054166040519015158152f35b346111fc5760203660031901126111fc576001600160a01b03611e76614a7b565b166000526004602052602060ff604060002054166040519015158152f35b346111fc5760003660031901126111fc576000546040516001600160a01b039091168152602090f35b346111fc576020806003193601126111fc576001600160a01b03611edf614a7b565b1680600052600682526040600020336000528252611f0460ff60406000205416614efb565b60005260018152611f1b600d604060002001614b40565b90611427604051928284938452830190614be6565b346111fc576020806003193601126111fc576001600160a01b0380611f53614a7b565b16803314801561215b575b611f6790614efb565b6000526003918281526040600020908154906001600160401b0382116107f15792939060405190600592611f9f8683861b0184614b1f565b81835260009485528585208684019591865b8484106120b2575050505050604051938085019181865251809252604082818701941b86010193926000965b838810611fea5786860387f35b90919293948380600192603f198a82030186528851908582511681528583830151168382015261209661208461207161205e61204b61203860408801516101208060408a0152880190614be6565b6060808901519088830390890152614be6565b6080808801519087830390880152614be6565b60a0808701519086830390870152614be6565b60c0808601519085830390860152614be6565b60e084015183820360e0850152614be6565b9161010080910151910152970193019701969093929193611fdd565b6009896001928c6121168b9e9d9a9b604051926120ce84614ae7565b808a54168452878a015416858401526120e960028a01614b40565b60408401526120f9888a01614b40565b606084015261210a60048a01614b40565b60808401528801614b40565b60a082015261212760068801614b40565b60c082015261213860078801614b40565b60e082015260088701546101008201528152019301930192919895949798611fb1565b506000818152600684526040808220338352855290205460ff16611f5e565b346111fc5760003660031901126111fc576020600a54604051908152f35b346111fc5760003660031901126111fc57604051806007549182815260208091019260076000527fa66cc928b5edb82af9bd49922954155ab7b0942694bea4ce44661d9a8736c688916000905b8282106121fc576114278561141b81890382614b1f565b83546001600160a01b0316865294850194600193840193909101906121e5565b346111fc5760203660031901126111fc57612235614a7b565b33600052600460205260ff60406000205416156122b15733600052600660205260406000209060018060a01b031690816000526020526040600020600160ff19825416179055612286600b54614ed6565b600b55337f0ceda602a8e00ef76afe24614343eb6c034877c816b6184d641d2d8b713a0fc6600080a3005b60405162461bcd60e51b815260206004820152601e60248201527f4f6e6c792070617469656e74732063616e206772616e742061636365737300006044820152606490fd5b346111fc5760203660031901126111fc576004356008548110156111fc5760086000527ff3f7a9fe364faab93b216da50a3214154f22a0a2b415b23a84c8169e8b636ee301546040516001600160a01b039091168152602090f35b346111fc5761235f36614d34565b9b9a909a99919998929897939796949633600052600460205260ff604060002054166134935760206040519e8f9061239682614b03565b8152015260408d015260608c015260808b015260a08a015260c089015260e08801526101008701526101208601526101408501526101608401526101808301526101a0820152336101c0820152426101e0820152336000526001602052604060002081519182516001600160401b0381116107f1576124158354614aad565b601f811161344f575b506020601f82116001146133e757819293946000926133dc575b50508160011b916000199060031b1c19161782555b60208101519182516001600160401b0381116107f1576124706001830154614aad565b601f8111613395575b506020601f8211600114613327578192939460009261331c575b50508160011b916000199060031b1c19161760018201555b60408201519182516001600160401b0381116107f1576124ce6002840154614aad565b601f81116132d5575b506020601f8211600114613267578192939460009261325c575b50508160011b916000199060031b1c19161760028301555b60608101519182516001600160401b0381116107f15761252c6003830154614aad565b601f8111613215575b506020601f82116001146131a7578192939460009261319c575b50508160011b916000199060031b1c19161760038201555b60808201519182516001600160401b0381116107f15761258a6004840154614aad565b601f8111613155575b506020601f82116001146130e757819293946000926130dc575b50508160011b916000199060031b1c19161760048301555b60a08101519182516001600160401b0381116107f1576125e86005830154614aad565b601f8111613095575b506020601f8211600114613027578192939460009261301c575b50508160011b916000199060031b1c19161760058201555b60c08201519182516001600160401b0381116107f1576126466006840154614aad565b601f8111612fd5575b506020601f8211600114612f675781929394600092612f5c575b50508160011b916000199060031b1c19161760068301555b60e08101519182516001600160401b0381116107f1576126a46007830154614aad565b601f8111612f15575b506020601f8211600114612ea75781929394600092612e9c575b50508160011b916000199060031b1c19161760078201555b6101008201519182516001600160401b0381116107f1576127036008840154614aad565b601f8111612e55575b506020601f8211600114612de75781929394600092612ddc575b50508160011b916000199060031b1c19161760088301555b6101208101519182516001600160401b0381116107f1576127626009830154614aad565b601f8111612d95575b506020601f8211600114612d275781929394600092612d1c575b50508160011b916000199060031b1c19161760098201555b6101408201519182516001600160401b0381116107f1576127c1600a840154614aad565b601f8111612cd5575b506020601f8211600114612c675781929394600092612c5c575b50508160011b916000199060031b1c191617600a8301555b6101608101519182516001600160401b0381116107f157612820600b830154614aad565b601f8111612c15575b506020601f8211600114612ba75781929394600092612b9c575b50508160011b916000199060031b1c191617600b8201555b6101808201519182516001600160401b0381116107f15761287f600c840154614aad565b601f8111612b55575b506020601f8211600114612ae75781929394600092612adc575b50508160011b916000199060031b1c191617600c8301555b6101a08101519182516001600160401b0381116107f1576128de600d830154614aad565b601f8111612a91575b506020601f8211600114612a255781929394600092612a1a575b50508160011b916000199060031b1c191617600d8201555b600f6101e0600e83019360018060a01b036101c082015116946bffffffffffffffffffffffff60a01b95868254161790550151910155600754600160401b8110156107f1576001810180600755811015612a04577fa66cc928b5edb82af9bd49922954155ab7b0942694bea4ce44661d9a8736c68801903390825416179055336000526004602052604060002060ff19906001828254161790556006602052604060002060205260016040600020918254161790556129d9600954614ed6565b600955337fc9fa2003fca4ce0dfc8cb0deae32266b715536df6685365b05b5be96ede8e49c600080a2005b634e487b7160e01b600052603260045260246000fd5b015190508480612901565b601f19821690600d840160005260206000209160005b818110612a7957509583600195969710612a60575b505050811b01600d820155612919565b015160001960f88460031b161c19169055848080612a50565b9192602060018192868b015181550194019201612a3b565b600d83016000526020600020601f830160051c81019160208410612ad2575b601f0160051c01905b818110612ac657506128e7565b60008155600101612ab9565b9091508190612ab0565b0151905084806128a2565b600c840160005260206000209060005b601f1984168110612b3d5750600193949583601f19811610612b24575b505050811b01600c8301556128ba565b015160001960f88460031b161c19169055848080612b14565b9091602060018192858a015181550193019101612af7565b600c84016000526020600020601f830160051c810160208410612b95575b601f830160051c82018110612b89575050612888565b60008155600101612b73565b5080612b73565b015190508480612843565b600b830160005260206000209060005b601f1984168110612bfd5750600193949583601f19811610612be4575b505050811b01600b82015561285b565b015160001960f88460031b161c19169055848080612bd4565b9091602060018192858a015181550193019101612bb7565b600b83016000526020600020601f830160051c810160208410612c55575b601f830160051c82018110612c49575050612829565b60008155600101612c33565b5080612c33565b0151905084806127e4565b600a840160005260206000209060005b601f1984168110612cbd5750600193949583601f19811610612ca4575b505050811b01600a8301556127fc565b015160001960f88460031b161c19169055848080612c94565b9091602060018192858a015181550193019101612c77565b600a84016000526020600020601f830160051c810160208410612d15575b601f830160051c82018110612d095750506127ca565b60008155600101612cf3565b5080612cf3565b015190508480612785565b6009830160005260206000209060005b601f1984168110612d7d5750600193949583601f19811610612d64575b505050811b01600982015561279d565b015160001960f88460031b161c19169055848080612d54565b9091602060018192858a015181550193019101612d37565b600983016000526020600020601f830160051c810160208410612dd5575b601f830160051c82018110612dc957505061276b565b60008155600101612db3565b5080612db3565b015190508480612726565b6008840160005260206000209060005b601f1984168110612e3d5750600193949583601f19811610612e24575b505050811b01600883015561273e565b015160001960f88460031b161c19169055848080612e14565b9091602060018192858a015181550193019101612df7565b600884016000526020600020601f830160051c810160208410612e95575b601f830160051c82018110612e8957505061270c565b60008155600101612e73565b5080612e73565b0151905084806126c7565b6007830160005260206000209060005b601f1984168110612efd5750600193949583601f19811610612ee4575b505050811b0160078201556126df565b015160001960f88460031b161c19169055848080612ed4565b9091602060018192858a015181550193019101612eb7565b600783016000526020600020601f830160051c810160208410612f55575b601f830160051c82018110612f495750506126ad565b60008155600101612f33565b5080612f33565b015190508480612669565b6006840160005260206000209060005b601f1984168110612fbd5750600193949583601f19811610612fa4575b505050811b016006830155612681565b015160001960f88460031b161c19169055848080612f94565b9091602060018192858a015181550193019101612f77565b600684016000526020600020601f830160051c810160208410613015575b601f830160051c8201811061300957505061264f565b60008155600101612ff3565b5080612ff3565b01519050848061260b565b6005830160005260206000209060005b601f198416811061307d5750600193949583601f19811610613064575b505050811b016005820155612623565b015160001960f88460031b161c19169055848080613054565b9091602060018192858a015181550193019101613037565b600583016000526020600020601f830160051c8101602084106130d5575b601f830160051c820181106130c95750506125f1565b600081556001016130b3565b50806130b3565b0151905084806125ad565b6004840160005260206000209060005b601f198416811061313d5750600193949583601f19811610613124575b505050811b0160048301556125c5565b015160001960f88460031b161c19169055848080613114565b9091602060018192858a0151815501930191016130f7565b600484016000526020600020601f830160051c810160208410613195575b601f830160051c82018110613189575050612593565b60008155600101613173565b5080613173565b01519050848061254f565b6003830160005260206000209060005b601f19841681106131fd5750600193949583601f198116106131e4575b505050811b016003820155612567565b015160001960f88460031b161c191690558480806131d4565b9091602060018192858a0151815501930191016131b7565b600383016000526020600020601f830160051c810160208410613255575b601f830160051c82018110613249575050612535565b60008155600101613233565b5080613233565b0151905084806124f1565b6002840160005260206000209060005b601f19841681106132bd5750600193949583601f198116106132a4575b505050811b016002830155612509565b015160001960f88460031b161c19169055848080613294565b9091602060018192858a015181550193019101613277565b600284016000526020600020601f830160051c810160208410613315575b601f830160051c820181106133095750506124d7565b600081556001016132f3565b50806132f3565b015190508480612493565b6001830160005260206000209060005b601f198416811061337d5750600193949583601f19811610613364575b505050811b0160018201556124ab565b015160001960f88460031b161c19169055848080613354565b9091602060018192858a015181550193019101613337565b600183016000526020600020601f830160051c8101602084106133d5575b601f830160051c820181106133c9575050612479565b600081556001016133b3565b50806133b3565b015190508480612438565b8360005260206000209060005b601f19841681106134375750600193949583601f1981161061341e575b505050811b01825561244d565b015160001960f88460031b161c19169055848080613411565b9091602060018192858a0151815501930191016133f4565b836000526020600020601f830160051c81016020841061348c575b601f830160051c8201811061348057505061241e565b6000815560010161346a565b508061346a565b60405162461bcd60e51b815260206004820152601a60248201527f50617469656e7420616c726561647920726567697374657265640000000000006044820152606490fd5b346111fc576134e636614c7c565b9493909392919233600052600560205260ff60406000205416613ddb576040519661351088614ae7565b8752602087015260408601526060850152608084015260a083015260c08201523360e08201524261010082015233600052600260205260406000209080519182516001600160401b0381116107f1576135698254614aad565b601f8111613d97575b506020601f8211600114613d2f5781929394600092613d24575b50508160011b916000199060031b1c19161781555b60208201519182516001600160401b0381116107f1576135c46001840154614aad565b601f8111613cdd575b506020601f8211600114613c6f5781929394600092613c64575b50508160011b916000199060031b1c19161760018301555b60408101519182516001600160401b0381116107f1576136226002830154614aad565b601f8111613c1d575b506020601f8211600114613baf5781929394600092613ba4575b50508160011b916000199060031b1c19161760028201555b60608201519182516001600160401b0381116107f1576136806003840154614aad565b601f8111613b5d575b506020601f8211600114613aef5781929394600092613ae4575b50508160011b916000199060031b1c19161760038301555b60808101519182516001600160401b0381116107f1576136de6004830154614aad565b601f8111613a9d575b506020601f8211600114613a2f5781929394600092613a24575b50508160011b916000199060031b1c19161760048201555b60a08201519182516001600160401b0381116107f15761373c6005840154614aad565b601f81116139dd575b506020601f821160011461396f5781929394600092613964575b50508160011b916000199060031b1c19161760058301555b60c08101519182516001600160401b0381116107f15761379a6006830154614aad565b601f8111613919575b506020601f82116001146138ad57819293946000926138a2575b50508160011b916000199060031b1c19161760068201555b6008610100600783019360018060a01b0360e082015116946bffffffffffffffffffffffff60a01b95868254161790550151910155600854600160401b8110156107f1576001810180600855811015612a04577ff3f7a9fe364faab93b216da50a3214154f22a0a2b415b23a84c8169e8b636ee3019033908254161790553360005260056020526040600020600160ff19825416179055613877600a54614ed6565b600a55337f2dc8105a7545248d0e354c4c6b02fb583071cc719fb4bef1ca74d72d475570bc600080a2005b0151905084806137bd565b601f198216906006840160005260206000209160005b818110613901575095836001959697106138e8575b505050811b0160068201556137d5565b015160001960f88460031b161c191690558480806138d8565b9192602060018192868b0151815501940192016138c3565b600683016000526020600020601f830160051c8101916020841061395a575b601f0160051c01905b81811061394e57506137a3565b60008155600101613941565b9091508190613938565b01519050848061375f565b6005840160005260206000209060005b601f19841681106139c55750600193949583601f198116106139ac575b505050811b016005830155613777565b015160001960f88460031b161c1916905584808061399c565b9091602060018192858a01518155019301910161397f565b600584016000526020600020601f830160051c810160208410613a1d575b601f830160051c82018110613a11575050613745565b600081556001016139fb565b50806139fb565b015190508480613701565b6004830160005260206000209060005b601f1984168110613a855750600193949583601f19811610613a6c575b505050811b016004820155613719565b015160001960f88460031b161c19169055848080613a5c565b9091602060018192858a015181550193019101613a3f565b600483016000526020600020601f830160051c810160208410613add575b601f830160051c82018110613ad15750506136e7565b60008155600101613abb565b5080613abb565b0151905084806136a3565b6003840160005260206000209060005b601f1984168110613b455750600193949583601f19811610613b2c575b505050811b0160038301556136bb565b015160001960f88460031b161c19169055848080613b1c565b9091602060018192858a015181550193019101613aff565b600384016000526020600020601f830160051c810160208410613b9d575b601f830160051c82018110613b91575050613689565b60008155600101613b7b565b5080613b7b565b015190508480613645565b6002830160005260206000209060005b601f1984168110613c055750600193949583601f19811610613bec575b505050811b01600282015561365d565b015160001960f88460031b161c19169055848080613bdc565b9091602060018192858a015181550193019101613bbf565b600283016000526020600020601f830160051c810160208410613c5d575b601f830160051c82018110613c5157505061362b565b60008155600101613c3b565b5080613c3b565b0151905084806135e7565b6001840160005260206000209060005b601f1984168110613cc55750600193949583601f19811610613cac575b505050811b0160018301556135ff565b015160001960f88460031b161c19169055848080613c9c565b9091602060018192858a015181550193019101613c7f565b600184016000526020600020601f830160051c810160208410613d1d575b601f830160051c82018110613d115750506135cd565b60008155600101613cfb565b5080613cfb565b01519050848061358c565b8260005260206000209060005b601f1984168110613d7f5750600193949583601f19811610613d66575b505050811b0181556135a1565b015160001960f88460031b161c19169055848080613d59565b9091602060018192858a015181550193019101613d3c565b826000526020600020601f830160051c810160208410613dd4575b601f830160051c82018110613dc8575050613572565b60008155600101613db2565b5080613db2565b60405162461bcd60e51b815260206004820152601960248201527f446f63746f7220616c72656164792072656769737465726564000000000000006044820152606490fd5b346111fc5760203660031901126111fc576001600160a01b0380613e42614a7b565b1660005260016020526040600020908180613e5c81614b40565b92613e6960018301614b40565b613e7560028401614b40565b613e8160038501614b40565b613e8d60048601614b40565b613e9960058701614b40565b613ea560068801614b40565b90613eb260078901614b40565b92613ebf60088a01614b40565b94613ecc60098b01614b40565b96613ed9600a8c01614b40565b98613ee6600b8d01614b40565b9a613ef3600c8e01614b40565b9c600d01613f0090614b40565b9d600e0154169e600f01549d6040518060805261020080915260805101613f2691614be6565b6080518082039060200152613f3a91614be6565b6080518082039060400152613f4e91614be6565b6080518082039060600152613f6291614be6565b6080518082039060800152613f7691614be6565b6080518082039060a00152613f8a91614be6565b6080518082039060c00152613f9e91614be6565b6080518082039060e00152613fb291614be6565b608051808203906101000152613fc791614be6565b608051808203906101200152613fdc91614be6565b608051808203906101400152613ff191614be6565b60805180820390610160015261400691614be6565b60805180820390610180015261401b91614be6565b608051808203906101a0015261403091614be6565b916080516101c001526080516101e0015260805180910390f35b346111fc5760e03660031901126111fc57614063614a7b565b6024356001600160401b0381116111fc57614082903690600401614c26565b6044356001600160401b0381116111fc576140a1903690600401614c26565b6064356001600160401b0381116111fc576140c0903690600401614c26565b6084356001600160401b0381116111fc576140df903690600401614c26565b9060a4356001600160401b0381116111fc576140ff903690600401614c26565b60c4356001600160401b0381116111fc5761411e903690600401614c26565b9233600052600560205260ff60406000205416156148f75760018060a01b03871660005260036020526040600020946040519661415a88614ae7565b3388526001600160a01b038916602089015260408801526060870152608086015260a085015260c084015260e0830152426101008301528054600160401b8110156107f1576141ae91600182018155614a91565b9290926148e157815183546001600160a01b039182166001600160a01b03199182161785556020840151600186018054919093169116179055604082015180519093906001600160401b0381116107f15761420c6002830154614aad565b601f811161489a575b506020601f821160011461482b578192939495600092614820575b50508160011b916000199060031b1c19161760028201555b60608301519283516001600160401b0381116107f15761426b6003840154614aad565b601f81116147d9575b506020601f821160011461476c578192939495600092614761575b50508160011b916000199060031b1c19161760038301555b60808101519283516001600160401b0381116107f1576142ca6004850154614aad565b601f811161471a575b50602094601f82116001146146ae579481929394956000926146a3575b50508160011b916000199060031b1c19161760048401555b60a08201519283516001600160401b0381116107f15761432b6005830154614aad565b601f811161465c575b50602094601f82116001146145f0579481929394956000926145e5575b50508160011b916000199060031b1c19161760058201555b60c08301519283516001600160401b0381116107f15761438c6006840154614aad565b601f811161459e575b50602094601f821160011461453257948192939495600092614527575b50508160011b916000199060031b1c19161760068301555b6007820160e08201518051906001600160401b0382116107f1576143ee8354614aad565b601f81116144df575b50602090601f8311600114614470579180610100949260089694600092614465575b50508160011b916000199060031b1c19161790555b015191015533906001600160a01b03167ff99ba6e36c1b5e3e60990bcbc89ad127e7b5c511cb7093f94adeb5f668cf0356600080a3005b015190508880614419565b90601f198316918460005260206000209260005b8181106144c75750926001928592600898966101009896106144ae575b505050811b01905561442e565b015160001960f88460031b161c191690558880806144a1565b92936020600181928786015181550195019301614484565b836000526020600020601f840160051c8101916020851061451d575b601f0160051c01905b81811061451157506143f7565b60008155600101614504565b90915081906144fb565b0151905085806143b2565b601f198216956006850160005260206000209160005b8881106145865750836001959697981061456d575b505050811b0160068301556143ca565b015160001960f88460031b161c1916905585808061455d565b91926020600181928685015181550194019201614548565b600684016000526020600020601f830160051c8101602084106145de575b601f830160051c820181106145d2575050614395565b600081556001016145bc565b50806145bc565b015190508580614351565b601f198216956005840160005260206000209160005b8881106146445750836001959697981061462b575b505050811b016005820155614369565b015160001960f88460031b161c1916905585808061461b565b91926020600181928685015181550194019201614606565b600583016000526020600020601f830160051c81016020841061469c575b601f830160051c82018110614690575050614334565b6000815560010161467a565b508061467a565b0151905085806142f0565b601f198216956004860160005260206000209160005b888110614702575083600195969798106146e9575b505050811b016004840155614308565b015160001960f88460031b161c191690558580806146d9565b919260206001819286850151815501940192016146c4565b600485016000526020600020601f830160051c81016020841061475a575b601f830160051c8201811061474e5750506142d3565b60008155600101614738565b5080614738565b01519050858061428f565b60038401600052602060002090600096601f198416975b8881106147c1575083600195969798106147a8575b505050811b0160038301556142a7565b015160001960f88460031b161c19169055858080614798565b91926020600181928685015181550194019201614783565b600384016000526020600020601f830160051c810160208410614819575b601f830160051c8201811061480d575050614274565b600081556001016147f7565b50806147f7565b015190508580614230565b6002830160005260206000209060005b601f1984168110614882575060019394959683601f19811610614869575b505050811b016002820155614248565b015160001960f88460031b161c19169055858080614859565b9091602060018192858b01518155019301910161483b565b600283016000526020600020601f830160051c8101602084106148da575b601f830160051c820181106148ce575050614215565b600081556001016148b8565b50806148b8565b634e487b7160e01b600052600060045260246000fd5b60405162461bcd60e51b815260206004820152602f60248201527f4f6e6c79207265676973746572656420646f63746f72732063616e206372656160448201526e7465206170706f696e746d656e747360881b6064820152608490fd5b346111fc5760403660031901126111fc5761496d614a7b565b6001600160a01b0390811660009081526003602052604090208054602435908110156111fc5761499c91614a91565b508054600182015483169216906149b560028201614b40565b906149c260038201614b40565b6149ce60048301614b40565b6149da60058401614b40565b906149e760068501614b40565b926149f460078601614b40565b946008015495604051988998895260208901526101208060408a01528801614a1b91614be6565b8781036060890152614a2c91614be6565b8681036080880152614a3d91614be6565b85810360a0870152614a4e91614be6565b84810360c0860152614a5f91614be6565b83810360e0850152614a7091614be6565b906101008301520390f35b600435906001600160a01b03821682036111fc57565b8054821015612a04576000526009602060002091020190600090565b90600182811c92168015614add575b6020831014614ac757565b634e487b7160e01b600052602260045260246000fd5b91607f1691614abc565b61012081019081106001600160401b038211176107f157604052565b61020081019081106001600160401b038211176107f157604052565b90601f801991011681019081106001600160401b038211176107f157604052565b9060405191826000825492614b5484614aad565b908184526001948581169081600014614bc35750600114614b80575b5050614b7e92500383614b1f565b565b9093915060005260209081600020936000915b818310614bab575050614b7e93508201013880614b70565b85548884018501529485019487945091830191614b93565b915050614b7e94506020925060ff191682840152151560051b8201013880614b70565b919082519283825260005b848110614c12575050826000602080949584010152601f8019910116010190565b602081830181015184830182015201614bf1565b81601f820112156111fc578035906001600160401b0382116107f15760405192614c5a601f8401601f191660200185614b1f565b828452602083830101116111fc57816000926020809301838601378301015290565b9060e06003198301126111fc576001600160401b0390600480358381116111fc5784614ca9918301614c26565b936024358481116111fc5781614cc0918401614c26565b936044358181116111fc5782614cd7918501614c26565b936064358281116111fc5783614cee918601614c26565b936084358381116111fc5784614d05918301614c26565b9360a4358481116111fc5781614d1c918401614c26565b9360c4359081116111fc57614d319201614c26565b90565b906101c06003198301126111fc5760048035926001600160401b03938481116111fc5781614d63918401614c26565b936024358181116111fc5782614d7a918501614c26565b936044358281116111fc5783614d91918601614c26565b936064358381116111fc5784614da8918301614c26565b936084358481116111fc5781614dbf918401614c26565b9360a4358181116111fc5782614dd6918501614c26565b9360c4358281116111fc5783614ded918601614c26565b9360e4358381116111fc5784614e04918301614c26565b93610104358481116111fc5781614e1c918401614c26565b93610124358181116111fc5782614e34918501614c26565b93610144358281116111fc5783614e4c918601614c26565b93610164358381116111fc5784614e64918301614c26565b93610184358481116111fc5781614e7c918401614c26565b936101a4359081116111fc57614d319201614c26565b6020908160408183019282815285518094520193019160005b828110614eb9575050505090565b83516001600160a01b031685529381019392810192600101614eab565b6000198114614ee55760010190565b634e487b7160e01b600052601160045260246000fd5b15614f0257565b60405162461bcd60e51b815260206004820152600e60248201526d139bdd08185d5d1a1bdc9a5e995960921b6044820152606490fdfea2646970667358221220ede8993c621cc97d0dfbdd9cc92cfd09573da36c6f6dc64a87d0ad788791e71964736f6c63430008140033",
  "linkReferences": {},
  "deployedLinkReferences": {}
}